:100000000C9463000C948B000C948B000C94D6130E
:100010000C94D6130C94D6130C948B000C948B0078
:100020000C9429160C948B000C948B000C946D1579
:100030000C948B000C948B000C948B000C948B0014
:100040000C948C130C948B000C945A130C94341352
:100050000C948B000C948B000C948B000C948B00F4
:100060000C944E140C948B00000000002400270018
:100070002A0000000008000201000003040700003D
:1000800000000000000000000000230026002900FE
:1000900000000000250028002B00040404040404D0
:1000A0000404020202020202030303030303010227
:1000B00004081020408001020408102001020408F6
:1000C00010201E174C2211241FBECFEFD8E0DEBF38
:1000D000CDBF11E0A0E0B1E0E8E2FFE402C005908E
:1000E0000D92AC3AB107D9F725E0ACEAB1E001C016
:1000F0001D92A536B207E1F710E0C2E6D0E004C0D9
:100100002197FE010E948F25C136D107C9F70E94B1
:1001100078180C9487270C940000FC019B012C5E3E
:100120003F4FC90163E470E00E944E25E617F707D0
:1001300058F0C90168E270E00E944E256F5F7F4F62
:1001400081E06E177F0708F480E00895FC019B01B1
:1001500024513109C90163E470E00E944E25E6177D
:10016000F70758F0C90168E270E00E944E256F5F02
:100170007F4F81E06E177F0708F480E008952F928B
:100180003F924F925F926F927F928F929F92AF9227
:10019000BF92CF92DF92EF92FF920F931F93CF9374
:1001A000DF93CDB7DEB72A970FB6F894DEBF0FBE48
:1001B000CDBF88873D832C832091490330914A032A
:1001C0003A832983862F90E00496880F991F39017E
:1001D000680E791E61706B838C819D81880F991FD9
:1001E0009F838E83C12CD12C76011A8619862224F6
:1001F00023942426312C512C412C842E912CB12C6B
:10020000A12C9B81992381F1F301008111816C81E3
:100210007D81C8010E948D00882389F0FA85FF5FE7
:10022000FA87F0FF3CC0CC0CDD1CEE1CFF1CC8287C
:10023000D928EA28FB2829852F5F298730C06E81BD
:100240007F81C8010E948D00882309F445C0CC0C31
:10025000DD1CEE1CFF1CC828D928EA28FB2839859C
:100260003F5F39871A861BC0E981FA81848190E05B
:100270000496880F991F8E0F9F1F6816790651F0FC
:10028000F301008111816C817D81C8010E94A6006B
:100290008823D9F0FA85FF5FFA87F0FD36C092E037
:1002A000690E711CEB81F1E0EF27EB83288539851E
:1002B000321708F4A6CFC0924503D0924603E092CD
:1002C0004703F092480381E007C06E817F81C80137
:1002D0000E94A600811122C02A960FB6F894DEBFB4
:1002E0000FBECDBFDF91CF911F910F91FF90EF9087
:1002F000DF90CF90BF90AF909F908F907F906F9046
:100300005F904F903F902F900895CC0CDD1CEE1C19
:10031000FF1CC228D328E428F5288DCF3985332344
:1003200041F0CC0CDD1CEE1CFF1CC228D328E428B5
:10033000F52889858F5F898795CF2F923F924F92BD
:100340005F926F927F928F929F92AF92BF92CF9265
:10035000DF92EF92FF920F931F93CF93DF9300D022
:100360001F92CDB7DEB789832A011901862F90E04D
:100370000496880F991F6091490370914A03860F74
:10038000971F9B838A83EE20E1F1C12CD12C76014B
:10039000912CB201EA81FB81808191810E948D00C4
:1003A000882309F461C0EA81FB81A280B380B10196
:1003B000C5010E94A6008823C9F0CC0CDD1CEE1CF0
:1003C000FF1C6894C0F88A819B8104969B838A8372
:1003D000939499819911DDCFC0924503D092460341
:1003E000E0924703F092480381E03EC0B801C501A6
:1003F0000E94A6008823C1F1CC0CDD1CEE1CFF1C62
:10040000E2CF812C912C54018394C12CD12C760104
:10041000B201EA81FB81808191810E948D00882355
:1004200019F1EA81FB8162807380B101C3010E94EE
:10043000A600882399F0C828D928EA28FB288A81B1
:100440009B8104969B838A83880C991CAA1CBB1CE5
:100450009981915099839111DBCFBECFB801C3012F
:100460000E94A6008111EBCF0F900F900F90DF91AB
:10047000CF911F910F91FF90EF90DF90CF90BF90A1
:10048000AF909F908F907F906F905F904F903F9034
:100490002F900895CF92DF92EF92FF92CF93DF9348
:1004A000B0915A04A0E08111AB2F80915B0490E0E1
:1004B000880F991FAC014A575F4FC0906004D090DD
:1004C0006104E0906204F090630430E020E0FA01FF
:1004D000C591D491E881B90190E080E0EB23EA1363
:1004E0000AC02F5F3F4F6C157D058E059F0578F381
:1004F0006FEF7FEFCB01DF91CF91FF90EF90DF9017
:10050000CF900895CF92DF92EF92FF92CF93DF9337
:10051000C82F809159048C3009F45EC038F48B30B8
:10052000F1F060E070E080EC9FE74FC085518230D1
:10053000C0F7D09155046D2F70E0762F662766279F
:100540007F7780915604682B90E080E00E946722BC
:100550002DEC3CEC4CEC5DE30E94C82259C060914C
:10056000550470E090E080E00E9467226B017C01FE
:10057000D0915604D7FF0AC0AC019B0160E070E047
:1005800080E89FEB0E9428246B017C01DF706D2FB7
:1005900070E090E080E00E9469222DEC3CEC4CEC95
:1005A0005DE30E94C822A70196010E942924CC2362
:1005B00061F026E636E646EE5FE30E94C82220E0C0
:1005C00030E040E052E40E942924DF91CF91FF9077
:1005D000EF90DF90CF900895D09155046D2F70E08B
:1005E00090E080E00E9467226B017C0160915604DC
:1005F0006F7070E090E080E00E9469222DEC3CEC8E
:100600004CEC5DE30E94C822A70196010E942924B8
:10061000D7FFCDCF9058CBCF08950895AF92BF921A
:10062000CF92DF92EF92FF920F931F93CF93DF93BE
:100630006C017B018B01040F151FEB015E01AE18ED
:10064000BF08C017D10759F06991D601ED91FC910F
:100650000190F081E02DC6010995892B79F7C5013C
:10066000DF91CF911F910F91FF90EF90DF90CF908E
:10067000BF90AF900895FC01538D448D252F30E03D
:10068000842F90E0821B930B541710F0CF9608959F
:1006900001970895FC01918D828D981761F0A28DCC
:1006A000AE0FBF2FB11D5D968C91928D9F5F9F7392
:1006B000928F90E008958FEF9FEF0895FC01918D48
:1006C000828D981731F0828DE80FF11D858D90E0B5
:1006D00008958FEF9FEF0895FC01918D228D892F52
:1006E00090E0805C9F4F821B91098F73992708953A
:1006F00084E593E00E946C0321E0892B09F420E05B
:10070000822F089580E090E0892B29F00E947803E1
:1007100081110C9400000895FC01A48DA80FB92F3D
:10072000B11DA35ABF4F2C91848D90E001968F7319
:100730009927848FA689B7892C93A089B1898C9138
:10074000837080648C93938D848D981306C0028887
:10075000F389E02D80818F7D80830895EF92FF9251
:100760000F931F93CF93DF93EC0181E0888F9B8DD4
:100770008C8D98131AC0E889F989808185FF15C08E
:100780009FB7F894EE89FF896083E889F9898081B1
:100790008370806480839FBF81E090E0DF91CF9180
:1007A0001F910F91FF90EF900895F62E0B8D10E0A2
:1007B0000F5F1F4F0F731127E02E8C8D8E110CC011
:1007C0000FB607FCFACFE889F989808185FFF5CF5C
:1007D000CE010E948C03F1CFEB8DEC0FFD2FF11DAC
:1007E000E35AFF4FF0829FB7F8940B8FEA89FB8999
:1007F00080818062CFCFCF93DF93EC01888D8823F7
:10080000B9F0AA89BB89E889F9898C9185FD03C073
:10081000808186FD0DC00FB607FCF7CF8C9185FF58
:10082000F2CF808185FFEDCFCE010E948C03E9CF0E
:10083000DF91CF910895833081F028F4813099F0D1
:100840008230A9F008958730A9F08830C9F084304B
:10085000B1F4809180008F7D03C0809180008F77FC
:1008600080938000089584B58F7784BD089584B502
:100870008F7DFBCF8091B0008F778093B00008957B
:100880008091B0008F7DF9CFCF93DF93282F30E098
:10089000F901EE58FF4F8491F901E255FF4FD491D1
:1008A000F901E656FF4FC491CC23A1F081110E94BB
:1008B0001B04EC2FF0E0EE0FFF1FEA57FF4FA5914E
:1008C000B491EC91ED2381E090E009F480E0DF91B8
:1008D000CF91089580E090E0FACF1F93CF93DF93FC
:1008E000282F30E0F901EE58FF4F8491F901E255CD
:1008F000FF4FD491F901E656FF4FC491CC23A9F0E4
:10090000162F81110E941B04EC2FF0E0EE0FFF1F49
:10091000E057FF4FA591B4918FB7F894EC91111166
:1009200008C0D095DE23DC938FBFDF91CF911F915C
:100930000895DE2BF8CFCF93DF9390E0FC01E255D2
:10094000FF4F249186569F4FFC0184918823C9F064
:1009500090E0880F991FFC01E859FF4FA591B491D1
:10096000FC01E057FF4FC591D49161110DC09FB7B5
:10097000F8948C91209582238C9388812823288356
:100980009FBFDF91CF910895623051F49FB7F894E3
:100990003C91822F809583238C93E8812E2BEFCF7F
:1009A0008FB7F894EC912E2B2C938FBFEACF0F9337
:1009B0001F93CF93DF930EE814E061E0F80181818B
:1009C0000E949B04C3ECD0E0CE010197F1F760E0F8
:1009D000F80180810E949B04CE010197F1F760E04D
:1009E000F80181810E949B042197F1F7DF91CF915B
:1009F0001F910F910895EF92FF920F931F93CF9342
:100A0000DF93082F18E0C3ECD0E061E080918E0402
:100A10000E949B04CE010197F1F7E02EF12C60E0DB
:100A200000FF61E080918F040E949B04CE0101973A
:100A3000F1F760E080918E040E949B04CE01019743
:100A4000F1F7F594E7940E2D1150F9F661E08091DD
:100A50008E040E949B0460E080918F040E949B049E
:100A6000CE010197F1F760E080918E040E949B0413
:100A70002197F1F780918F040E944404182F81116F
:100A800005C061E080918F040E949B04C3ECD0E01C
:100A9000CE010197F1F761E080918E040E949B04E2
:100AA0002197F1F781E0111101C080E0DF91CF9132
:100AB0001F910F91FF90EF90089561E080918F0456
:100AC0000E949B0483EC90E00197F1F708950F9347
:100AD0001F93CF93DF938C010E945D0580E40E94F9
:100AE000FB040E94D7040E945D0580EC0E94FB0479
:100AF000E8010C5F1F4F89910E94FB04C017D107CA
:100B0000D1F70E94D7040E945D05809190048F70F8
:100B100080580E94FB04DF91CF911F910F910C949C
:100B2000D7041F93CF93DF93182FEB0161E00E944E
:100B30009B04209739F460E0812FDF91CF911F91C2
:100B40000C946D04CF3FD10511F461E0F5CFE12F96
:100B5000F0E0EE58FF4FE491E33031F140F4E13042
:100B6000B1F0E230E1F0C038D1057CF7E4CFE730F6
:100B700029F1E83059F1E430B1F7809180008062CA
:100B800080938000D0938B00C0938A0004C084B50A
:100B9000806884BDC7BDDF91CF911F91089584B552
:100BA000806284BDC8BDF7CF80918000806880934B
:100BB0008000D0938900C0938800EDCF8091B00071
:100BC00080688093B000C093B300E5CF8091B000FF
:100BD00080628093B000C093B400DDCF3FB7F8943B
:100BE0008091A4029091A502A091A602B091A702C3
:100BF00026B5A89B05C02F3F19F00196A11DB11D78
:100C00003FBFBA2FA92F982F8827BC01CD01620FB3
:100C1000711D811D911D42E0660F771F881F991F6E
:100C20004A95D1F708958F929F92AF92BF92CF923B
:100C3000DF92EF92FF926B017C010E94EE054B0167
:100C40005C01C114D104E104F104B9F00E94EE0585
:100C5000681979098A099B09683E734081059105E5
:100C600080F321E0C21AD108E108F10888EE880E6D
:100C700083E0981EA11CB11CE4CFFF90EF90DF90A1
:100C8000CF90BF90AF909F908F900895CF92DF92BA
:100C9000EF92FF920F931F93CF93DF93CDB7DEB701
:100CA000C054D1400FB6F894DEBF0FBECDBF2FB7F2
:100CB000F8948091240390912503A0912603B0918C
:100CC00027032FBF40915C0450915D0460915E0446
:100CD00070915F048C019D01041B150B260B370BD3
:100CE000B901A801403D57406105710590F480911C
:100CF0006404C05CDE4F0FB6F894DEBF0FBECDBFFC
:100D0000DF91CF911F910F91FF90EF90DF90CF90E7
:100D1000089580935C0490935D04A0935E04B09367
:100D20005F041092570410925604109255041092CA
:100D300054041092530462E0809158040E949B0472
:100D400061E070E080E090E00E94130661E0809135
:100D500058040E949B0460E0809158040E946D0436
:100D6000809159048551823020F58BE291E1019701
:100D7000F1F762E0809158040E949B048091650421
:100D800090E08230910538F0880F991F880F991FE5
:100D900005970197F1F7F89480E00E944A026F3FAF
:100DA0007F4F8F4F9F4F61F410926404789480E0DE
:100DB000A0CF64E170E080E090E00E941306D9CFFC
:100DC00081E00E944A026F3F7F4F8F4F9F4F61F338
:100DD0008E010F5F1F4F6E018FEBC81A8EEFD80A7E
:100DE000780180E00E944A02F70160837183828368
:100DF000938381E00E944A02F701648375838683AE
:100E00009783F8E0EF0EF11CEC14FD0451F7789491
:100E100030E020E0F801C080D180E280F38044819E
:100E2000558166817781FFEFCF16DF06EF06FF065B
:100E300031F04F3F8FEF58076807780719F4109289
:100E40006404B5CFF90183E0F595E7958A95E1F75C
:100E5000ED5AFB4F8081880FC416D506E606F706CB
:100E600010F180832F5F3F4F085F1F4F28323105FD
:100E700089F6409157042091530480915404280F1F
:100E80003327331F80915504280F311D809156045C
:100E9000820F932F911D99274817190681F681E03B
:100EA0008093640426CF8160DCCF20912A033091A7
:100EB0002B032817390771F4909128038091290397
:100EC000981741F0E0912803F0E0ED59FD4F808143
:100ED00090E008958FEF9FEF08950895EF92FF92AD
:100EE0000F931F93CF93DF93DC015C96ED90FC9002
:100EF0005D97E114F10479F481E090E013969C93FE
:100F00008E93129790E080E0DF91CF911F910F9127
:100F1000FF90EF9008955196ED91FC915297509665
:100F20008C915097982F90950FB75E962C915E9765
:100F3000122F127021FD6095F8942081112319F170
:100F4000282B2083E7012197F1F728E0462F50E076
:100F5000308160FF1AC0382B3083E7012197F1F709
:100F6000BA0175956795215089F7112381F0808129
:100F7000892380830FBF5C968D919C910197F1F737
:100F800081E090E0C1CF2923DCCF3923E5CF9081E8
:100F9000892BEFCF20912A0330912B032817390793
:100FA00071F4809129032091280390E0805C9F4F89
:100FB000821B910960E470E00E946225089590E030
:100FC00080E0089520912A0330912B0328173907D8
:100FD000B9F49091280380912903981789F0E09142
:100FE0002803F0E0ED59FD4F80812091280330E087
:100FF0002F5F3F4F2F7333272093280390E00895EE
:101000008FEF9FEF0895E0912A03F0912B03E817EB
:10101000F90769F4A389B4899C918589809589230E
:101020008C9310922B0310922A0381E0089580E0A4
:10103000089510924F0410924E0410924D04109295
:101040004C0410924B0410924A048DE991E0909365
:1010500051048093500490914004963108F046C0AA
:101060002DEB30E030934B0420934A042BE931E020
:1010700030934D0420934C042CE231E030934F0424
:1010800020934E042091680084E0983048F031E0CD
:101090009E3008F430E081E001C0880F3A95EAF70D
:1010A000822B809368002DE630E0983050F02BE6DC
:1010B00030E09E3030F02CE630E0963110F030E039
:1010C00020E03093480420934704292F30E09830E3
:1010D000C0F581E001C0880F9A95EAF78093490432
:1010E00080915004909151040197F1F780914E0442
:1010F00090914F04892B21F180912A0390912B0329
:1011000024E084339207E1F0009711F00E94030875
:10111000809152048E7F8093520410922903109282
:10112000280384E394E090932B0380932A03E091B7
:101130004704F0914804808190914904892B808371
:1011400008959E3040F42850310981E001C0880F95
:101150002A95EAF7C3CF2E503109F7CF0895209191
:10116000F201260F3327331F21323105ECF4209191
:101170003B02FC0190E080E0243069F082E00895B9
:10118000A091F2012191AC014E525E4FA40FB52FF8
:10119000B11D2C930196861798F38091F201680F88
:1011A0006093F20180E0089581E0089510923B027F
:1011B00081E080933A021092150261E082E10E9480
:1011C0006D0461E083E10E946D04E9EBF0E0808151
:1011D0008E7F808380818D7F808388E48093B800B8
:1011E00085E48093BC000895CF93DF9391E09093C2
:1011F000D1018823B9F0C091B800D091BA00809194
:10120000BC008A7B8093BC0060E082E10E946D0498
:1012100060E083E10E946D040E94D608D093BA007A
:10122000C093B800DF91CF910895E091AF02809113
:10123000AE02E81730F4F0E0EF54FE4F808190E00A
:1012400008958FEF9FEF08959091AF028091AE02C5
:101250002FEF3FEF981748F4E92FF0E0EF54FE4FDF
:10126000208130E09F5F9093AF02C9010895809183
:10127000AE029091AF02891B990B0895CF92DF9235
:10128000EF92FF920F931F93CF93DF937C01CB01DB
:101290008A0120914102222389F0EB016B01C40EE7
:1012A000D51ECC15DD0569F06991D701ED91FC9152
:1012B0000190F081E02DC7010995F3CF642F0E94C2
:1012C000AF08C801DF91CF911F910F91FF90EF9070
:1012D000DF90CF900895CF93DF931F92CDB7DEB705
:1012E0006983209141022223F9F02091AC0220323F
:1012F00058F021E030E0FC013383228390E080E06D
:101300000F90DF91CF9108958091AD02E82FF0E02A
:10131000EE5BFD4F998190838F5F8093AD02809348
:10132000AC0281E090E0ECCF61E0CE0101960E943A
:10133000AF08F7CFCF92DF92EF92FF920F931F93F8
:10134000CF93DF93FC01C48121E020934102C0933D
:1013500062021092AD021092AC028485682B81EF7C
:1013600093E00E946B09D091AC02D13208F092C098
:101370000E94EE056B017C0180913B02811165C0EA
:1013800082E080933B0281E080933A028FEF80936A
:10139000390210923802D0933702A2E4B2E0E7E1BA
:1013A000F2E080E0D81385C01092160280911602F8
:1013B000CC0FC82BC093160280911502813009F022
:1013C0007CC0109215020E94EE056B017C01809199
:1013D00016028093BB0080913D0290913E02A09145
:1013E0003F02B0914002892B8A2B8B2B99F00E94EF
:1013F000EE0500913D0210913E0220913F02309196
:1014000040026C197D098E099F09061717072807E6
:101410003907E0F18091BC0083FDD9CF85EC809342
:10142000BC000E94EE056B017C0180913B02823082
:1014300009F445C0809139028F3F61F180913902F2
:10144000803241F18091390225C080913D02909116
:101450003E02A0913F02B0914002892B8A2B8B2B38
:1014600009F48ACF0E94EE0500913D0210913E02E0
:1014700020913F02309140026C197D098E099F092D
:10148000061717072807390708F076CF80913C0226
:101490000E94F4081092AD021092AC021092410228
:1014A000DF91CF911F910F91FF90EF90DF90CF9040
:1014B00008959D9191938F5F75CF85EEB0CF809108
:1014C0003D0290913E02A0913F02B0914002892BD3
:1014D0008A2B8B2B09F4A9CF0E94EE0500913D02C7
:1014E00010913E0220913F02309140026C197D091B
:1014F0008E099F09061717072807390708F095CFA7
:10150000C5CF90E080E00895FC01EE0FFF1FE85F7B
:10151000FC4F20813181232B39F421E030E03183ED
:10152000208361E00C949B040895682F84E593E088
:101530000C94AE030F931F93CF93DF938B01D82F9F
:10154000C92F82E00E94950AC801AD2FBC2F80935D
:10155000AC019093AD01A093AE01B093AF010E9496
:10156000950A812F0E94950A8D2F0E94950A8C2F33
:10157000DF91CF911F910F910C94950A8FEF0E94EC
:10158000950A85E50C94950A6F927F928F929F92AF
:10159000AF92BF92CF92DF92EF92FF920F931F9381
:1015A000CF93DF9380919104833009F07FC689E95E
:1015B00094E090933703809336038091950490E0F4
:1015C00090933903809338038091980491E08111BE
:1015D00001C090E090933A0321E934E030934A034C
:1015E00020934903882311F11092980410929504D6
:1015F00080E4809344031092400310923F031092C2
:101600003E0310923D031092450310924603109240
:10161000470310924803109243038091440386FFCE
:1016200024C010923C0310923B0352C0109244031A
:1016300080913F0390914003B0E0A0E080934F037E
:1016400090935003A0935103B093520380913D03B4
:1016500090913E03B0E0A0E080934B0390934C0345
:10166000A0934D03B0934E03C6CFE0914903F09190
:101670004A032481822F8F7B843009F088C08285C1
:101680009385865891098C35910508F080C0848532
:1016900095852430F9F48197489708F078C08685BD
:1016A00097850897089708F072C081E080934403FB
:1016B00080914B0390914C0390933E0380933D03A4
:1016C00080914F03909150039093400380933F0388
:1016D00081E085C1825491098F9708F058C0E12CB0
:1016E00000E312E020E936E040E352E063E080E20C
:1016F0000E949D01882309F44AC0E0914903F091BA
:101700004A03E257FF4F20813181285031092830A8
:101710003105E8F540914503909146033091470328
:1017200020914803632F70E07093400360933F0360
:10173000642F792F6E3E57E8750779F441E150E048
:1017400050933C0340933B0330E030933E0320939F
:101750003D0390E29093430342C1E5E0F0E0F09353
:101760003C03E0933B03909549130CC050E0509329
:101770003E0340933D032095321759F394E0909334
:101780004403E7CF70933E0360933D03F4CFE091B1
:101790004903F0914A038481843609F0AAC0828506
:1017A0009385C397859708F0A4C0848595854A974B
:1017B000439708F09EC0E12C00EB11E020E135E0FA
:1017C00040EB51E063E080E10E949D01882309F431
:1017D00090C0F0904503CF2D90914603D92F96E00D
:1017E000C92ED12CC230A0E2DA07F9F08AE0C82E67
:1017F000D12CCA3ABAE5DB07C1F009E0C02ED12CE2
:10180000C43522E3D20789F018E0C12ED12CC330B1
:1018100051E0D50751F02BE0C22ED12CC3328BEC16
:10182000D80719F0B7E0CB2ED12CE12C00EB11E05A
:1018300020E135E040EB51E063E280E20E949D014F
:10184000882309F456C0FD26409145035091460374
:1018500060914703709148039A01A4E0369527955B
:10186000AA95E1F730933E0320933D03262F30E005
:101870003093400320933F03242F262725279F2DB5
:1018800092959F709F259F70342F3F70931719F08A
:1018900094E090934403A7E0CA16D10479F49091A0
:1018A0004403906190934403E0914103F09142031B
:1018B000CE2BDF2BD0934203C0934103271729F08F
:1018C00090914403946090934403E0914903F09114
:1018D0004A032085318528323A4028F49091440308
:1018E000916090934403D0923C03C0923B0390E3F9
:1018F00031CF80919504803209F083C0EE24E394C7
:101900000CE013E02CE137E044E051E061E08FE0CF
:101910000E949D01882309F474C0A0914903B091ED
:101920004A03FD01EA5BFF4F2081318124503109D8
:101930002530310508F065C090E89093440300918C
:101940004503109146032091470330914803E02F4F
:10195000E370B901A801F2E0769567955795479530
:10196000FA95D1F750933D0310923E03EA01DD272B
:10197000D0934003C0933F0318960D90BC91A02DC7
:10198000A536B440D8F5909153039F5F90935303CD
:1019900000FF10C022E82093440320914F0340959C
:1019A000241719F036E83093440330E030934003B5
:1019B00020933F03923028F09091440391609093DC
:1019C00044039FE090934303E1502FE030E0E23086
:1019D00010F021E030E030933C0320933B03DF9193
:1019E000CF911F910F91FF90EF90DF90CF90BF901C
:1019F000AF909F908F907F906F90089510925303B7
:101A0000E0CFE0914903F0914A0382859385849762
:101A10004A9708F050C084818A3129F08A3219F03F
:101A2000803209F048C02485358528503109283096
:101A3000310508F040C090E09C012150310937FD8C
:101A40009C0135952795DF011E960496880F991FF6
:101A50008E0F9F1F122FC12CD12C7601C39440E012
:101A600050E0BA01112309F46FC0CD91DC911197B8
:101A7000C231D105D8F0A097F0F44C295D296E2928
:101A80007F29ED012296C817D90748F41296CD9107
:101A9000DC9113972897289770F4ED012496CC0CCD
:101AA000DD1CEE1CFF1C1150DE01DCCFC930D1055E
:101AB00010F0619730F329E733E041E061E08EE018
:101AC0000E94BF00E0914903F0914A03882309F482
:101AD00067C090E89093440360914503909146035A
:101AE000262F2F7330E03093400320933F03462F7F
:101AF000592FBA01D6E076956795DA95E1F76F71BF
:101B0000772770933E0360933D0354FD06C0205C2D
:101B10003F4F3093400320933F0393FF03C098E867
:101B20009093440320853185233E384028F49091DA
:101B300044039160909344032CE030E030933C03E5
:101B400020933B039DE006CE40934503509346030C
:101B50006093470370934803842F8F7717E076953F
:101B60006795579547951A95D1F70084F185E02D33
:101B7000E438F34018F491E09093440390E090939C
:101B8000400380933F0350933E0340933D032093D3
:101B9000430380E190E090933C0380933B0398CD16
:101BA0008285938588974D9790F5848595850C97C8
:101BB0000B9768F52CEB31E040E063E084E00E9495
:101BC000BF00882321F1E0914903F0914A038091FD
:101BD000450390914603A0914703B09148030497B1
:101BE000A105B105A1F4828D938D9C012650310988
:101BF0002730310578F5248D358D2C5031092B3067
:101C0000310540F5868D978D8D309105B0F5E091C9
:101C10004903F0914A0324812C3319F0243009F050
:101C2000CDC082859385865891098C35910508F041
:101C3000C5C084859585243009F056C081974897A2
:101C400008F0BCC0868597850897089708F0B6C04D
:101C500081E82CCD44970F97D0F688E08093440319
:101C6000848D958D8C30910590F28731910558F0D7
:101C700043976BE00F9740F0CACF8831910590F100
:101C800044970F9720F66CE02CEB31E040E080E1C8
:101C90000E94BF00882309F4BACF90E890934403D0
:101CA000409145032091460350E0509340034093F8
:101CB0003F0330E030933E0320933D03E09149031E
:101CC000F0914A03208531852A383C4018F491E888
:101CD000909344032DE030E030933C0320933B038A
:101CE00090E138CD6DE0D0CF825491098F9708F004
:101CF00065C0EE24E39400E312E020E936E040E31F
:101D000052E063E08CE10E949D01882309F456C0F3
:101D1000E0914903F0914A03E258FF4F208131815D
:101D2000285031092830310508F048C090E89093D8
:101D300044034091450350914603609147037091DD
:101D400048038A019B01B4E03695279517950795BE
:101D5000BA95D1F7F8011093400300933F038A012D
:101D60009B01C4E13695279517950795CA95D1F73C
:101D700010933E0300933D0324E030E090E0AE2F4B
:101D8000AF709A0FA4E0F695E795AA95E1F7215078
:101D90003109A9F749274F70552766277727452B23
:101DA000462B472B19F094E89093440324E030E04D
:101DB00030933C0320933B039CE1CCCCE09149035E
:101DC000F0914A038481843269F1823209F057C06C
:101DD0008085918582369D4508F07ACC82859385F1
:101DE0000897079708F074CCE65BFF4F80819181DC
:101DF0000897079708F06CCC81E0809344038091AA
:101E00004B0390914C0390933E0380933D0380914C
:101E10004F03909150039093400380933F0383E0DE
:101E200090E0B9CE828593858D57910987359105CC
:101E300030F584859585CE978C9708F5E12C0EE0DA
:101E400012E02AE236E04EE052E063E080E10E94D8
:101E50009D018823A1F0209145034091460350E065
:101E60005093400340933F0330E030933E03209370
:101E70003D0390E19093430323E030E0ACCDE0914B
:101E80004903F0914A038481982F9F7D943419F07F
:101E9000863009F086C022853385215431092F32DE
:101EA000310508F07EC024853585215431092E3254
:101EB000310508F076C08630B1F481E080934403A8
:101EC00080914B0390914C0390933E0380933D038C
:101ED00080914F03909150039093400380933F0370
:101EE0008EE090E058CEE12C06E212E022E736E0E8
:101EF00046E252E063E0843699F580E10E949D015C
:101F0000882309F44EC08091450390914603909335
:101F10003E0380933D0322E736E046E252E063E071
:101F200080E20E949D018823E1F190914503309168
:101F3000460320914703809148032095821731F092
:101F40009095391719F094E090934403982F832FBC
:101F50009093400380933F0380E380934303C0CF7B
:101F600080E20E949D018823E1F080914703309137
:101F70004803209145039091460320933D0390939D
:101F80003E03932F9095891307C090E090934003F0
:101F900080933F0380E2E1CF80933F03309340037F
:101FA000F9CFE0914903F0914A038285938524811A
:101FB000243461F50B970A9748F5848595858A97AF
:101FC0004E9720F5EE24E3940EEE12E026E638E07C
:101FD0004EEE52E063E080E20E949D018823B1F062
:101FE000E0914903F0914A03E257FF4F208131818C
:101FF0002B5031092A30310548F490E8909344037E
:1020000090E29093430325E130E0E5CCE091490371
:10201000F0914A032481828593850297049708F002
:102020005EC0243209F05BC0848595850F970C97BC
:1020300008F055C0EE24E39407E011E029E232E015
:102040004EE950E063E080E10E949D01882309F49D
:1020500046C0E0914903F0914A03DF01A25BBF4F04
:102060002D913C912250310924303105C0F590E882
:10207000909344033091450320914603432F522F00
:10208000622F62956F702F7094E0569547959A95E0
:10209000E1F74F703F709FE09627922794273917FA
:1020A00019F094E8909344030084F185E02DE83F13
:1020B000F14128F49091440392609093440360931B
:1020C0003D0310923E0350E1259F90011124242BE3
:1020D0003093400320933F0323E130E0FDCDE091B6
:1020E0004903F0914A0324818285938540970D9797
:1020F000C8F52432B9F5848595854597409790F5C4
:10210000E12C07EA15E024ED31E046E152E063E01E
:1021100080E10E949D01882329F1E0914903F0911B
:102120004A03DF01A25BBF4F2D913C91285031093A
:1021300027303105B8F4209145039091460392274A
:102140009F3F81F4408551854431554018F491E01A
:102150009093440330E03093400320933F0322E107
:1021600030E0BACDE0914903F0914A036480A6E6DD
:102170006A1253C07F01CC24C394D12C20E030E0FC
:1021800040E010E000E0912C812C712CD7011A96D0
:10219000CD91DC91B2E0CB0ED11CD7011C96AD9055
:1021A000BC90C501BE010E944E25DB01CA0DDB1D9E
:1021B00061972E97B0F5512F602F792D882D972D8F
:1021C00001E00E947625D32FC42F152F062F972EBE
:1021D000882E792E129708F42160B4E0EB0EF11CE2
:1021E00085E6C816D10491F684E190E090933C0313
:1021F00080933B0382E38093430380E18093440315
:1022000020934103D0934203C09345035093460368
:1022100060934703709348035BCAB5E0B61508F0B6
:1022200057CA3A96C3E0D0E025EC3DE94CE151E8CD
:10223000712C0AE0C615D70568F5848195816191F6
:102240007191089F7001099FF00C1124DB0113E0CC
:10225000AA0FBB1F1A95E1F710E0EA16FB0678F00B
:10226000069FD001079FB00D112463E0880F991FCE
:102270006A95E1F712E0A817B90708F011E063E9E1
:1022800071E080E091E00E9486239B01AC01212750
:102290002196D0CF209345033093460340934703C4
:1022A0005093480380E280934303BBC980E097CBFF
:1022B0000F931F93CF938C01C62F0E949A096C2F06
:1022C0006460C8010E949A096C2F6B7FC8010E944C
:1022D0009A0983EC90E00197F1F7CF911F910F914C
:1022E00008950F931F93CF93DF938C01D62FC42FA4
:1022F000607F642B0E94581180E1D89FB0011124A7
:102300006C2BC801DF91CF911F910F910C94581144
:1023100040E0682F86E694E00C947111CF93DF9330
:10232000CDB7DEB728970FB6F894DEBF0FBECDBF8E
:1023300098E0E2E1F1E0DE01119601900D929A95AC
:10234000E1F790916E04961710F46FEF690F70E04B
:10235000660F771F21E030E02C0F3D1F620F731FC7
:10236000FB019081890F806828960FB6F894DEBF34
:102370000FBECDBFDF91CF910C94881181E00E94F8
:1023800088118BE39FE10197F1F780916F04882317
:1023900021F060E080E00C948E11089541E00E94ED
:1023A000711181E090E00895FB0101900020E9F7B0
:1023B0003197AF01461B570BDC01ED91FC91028078
:1023C000F381E02D099464E871E084E593E00C94D6
:1023D000D4118FEF0E94950A85E50E94950A0C940E
:1023E000E3118F929F92AF92BF920F931F93CF935F
:1023F000DF93CDB7DEB7A1970FB6F894DEBF0FBE5F
:10240000CDBF19A2423008F44AE08E010F5D1F4F84
:10241000842E912CB12CA12CA50194010E9496230D
:10242000E62FB901CA01EA3004F5E05DD801EE9368
:102430008D01232B242B252B79F790E080E010973A
:1024400029F0BD0186E694E00E94D411A1960FB652
:10245000F894DEBF0FBECDBFDF91CF911F910F91DA
:10246000BF90AF909F908F900895E95CDFCFCF929F
:10247000DF92EF92FF926C01990FEE08FF08F7FED2
:1024800016C041E06DE286E694E00E947111662775
:102490007727CB016C197D098E099F094AE00E94BC
:1024A000F1110196FF90EF90DF90CF9008954AE0F0
:1024B000C701B601FF90EF90DF90CF900C94F1111F
:1024C000FC0180819181009711F00C9431260895D0
:1024D0000F931F93CF93DF93EC018881998100972D
:1024E00059F02A813B812617370730F081E0DF91D0
:1024F000CF911F910F9108958B016F5F7F4F0E94C5
:10250000BA26009759F0998388831B830A832C810C
:102510003D81232B59F7FC011082E8CF80E0E7CF03
:10252000EF92FF920F931F93CF93DF936115710585
:1025300041F480E0DF91CF911F910F91FF90EF90D8
:10254000089541155105B1F07B01EC010C811D810D
:10255000040F151FB8010E946812882351F32881C7
:1025600039818C819D81B701820F931F0E94802742
:102570001D830C8381E0DECFEF92FF920F931F93B8
:10258000CF93DF93EC017B018A01BA010E946812AC
:1025900028813981811114C02115310519F0C90133
:1025A0000E943126198218821D821C821B821A8287
:1025B000CE01DF91CF911F910F91FF90EF90089581
:1025C0001D830C83B701C9010E948027F1CFFC0154
:1025D00011821082138212821582148250E040E030
:1025E00066E871E00C94BC1250E040E066E871E0EF
:1025F0008EE294E00C94BC1285ED8093BC00809137
:102600003D0290913E02A0913F02B0914002079698
:10261000A11DB11D23E0B695A795979587952A959D
:10262000D1F72091BC0024FD03C010923B02089515
:1026300040913D0250913E0260913F0270914002F4
:10264000452B462B472B69F30097A105B10541F0B7
:1026500025E32A95F1F700000197A109B109E1CF1F
:1026600080913C020C94F4081F920F920FB60F92C7
:1026700011242F933F934F935F936F937F938F9387
:102680009F93AF93BF93EF93FF9384E593E00E94F2
:102690008C03FF91EF91BF91AF919F918F917F91AB
:1026A0006F915F914F913F912F910F900FBE0F90BF
:1026B0001F9018951F920F920FB60F9211242F930F
:1026C0008F939F93EF93FF93E0916403F0916503E1
:1026D0008081E0916A03F0916B0382FD1BC09081C1
:1026E00080916D038F5F8F7320916E03821741F08D
:1026F000E0916D03F0E0EC5AFC4F958F80936D03F1
:10270000FF91EF919F918F912F910F900FBE0F909E
:102710001F9018958081F4CF1F920F920FB60F92E1
:1027200011242F933F938F939F93AF93BF938091E7
:10273000240390912503A0912603B09127033091A3
:10274000A30223E0230F2D3758F50196A11DB11DDB
:102750002093A3028093240390932503A093260340
:10276000B09327038091A4029091A502A091A602A4
:10277000B091A7020196A11DB11D8093A402909370
:10278000A502A093A602B093A702BF91AF919F911B
:102790008F913F912F910F900FBE0F901F90189522
:1027A00026E8230F0296A11DB11DD2CF1F920F92D2
:1027B0000FB60F9211242F933F934F935F936F9314
:1027C0007F938F939F93AF93BF93EF93FF93E0918A
:1027D0002A03F0912B03309749F0A685B7858585AC
:1027E000968D91FF14C09C918923A1F4FF91EF91E4
:1027F000BF91AF919F918F917F916F915F914F9119
:102800003F912F910F900FBE0F901F9018959C91A4
:10281000892361F7A389B4899C918589809589234F
:102820008C93868997890197F1F7608D718DA685C4
:10283000B785558538E020E0CB010197F1F7822F6D
:1028400090E095958795282F4C91452309F02068B5
:10285000315091F7868D81FD20958091290390E07C
:1028600001968F73992730912803381799F0A0911A
:102870002903B0E0AD59BD4F2C9380932903828D7D
:10288000938D0197F1F7A389B4898C919589892B50
:102890008C93ACCF868D8160868FF1CF1F920F9283
:1028A0000FB60F9211242F933F934F935F936F9323
:1028B0007F938F939F93AF93BF93EF93FF938091F9
:1028C000B900887F803609F44AC0F0F5883209F4EF
:1028D000A7C018F5803109F49BC0B8F4882309F427
:1028E000F9C0883009F494C0FF91EF91BF91AF9186
:1028F0009F918F917F916F915F914F913F912F9118
:102900000F900FBE0F901F901895883109F488C062
:10291000803251F78093390214C0803409F49DC08D
:1029200040F48033B9F38833F9F68093390285ECAB
:10293000B0C0803509F485C0883509F496C0883464
:1029400099F60E94FC12D0CF883909F48CC038F572
:10295000883729F050F4883611F0803729F683E063
:1029600080933B021092140257C0883809F47BC050
:10297000803919F0803809F0B7CF80911402803285
:1029800008F071C0E091140281E08E0F8093140270
:102990008091BB00F0E0EC50FE4F80833DC0803B57
:1029A00039F0E0F4803A09F479C0883A09F09CCF14
:1029B00084E080933B021092F3011092F201E091C7
:1029C000AA02F091AB0209958091F20181110FC02A
:1029D00081E08093F2011092D20109C0803C09F499
:1029E000A6CF883C09F4A3CF883B09F07DCFE091C6
:1029F000F30181E08E0F8093F301F0E0EE52FE4F81
:102A000080818093BB009091F3018091F20129C0F5
:102A1000809116028093BB0085EC8093BC0064CF4C
:102A20009091380280913702981758F5E09138025A
:102A300081E08E0F80933802F0E0E95EFD4F8081E7
:102A4000E9CFE091380281E08E0F809338028091C7
:102A5000BB00F0E0E95EFD4F8083909138028091E9
:102A600037029817C8F285E8D8CFE091380281E0A4
:102A70008E0F809338028091BB00F0E0E95EFD4F3D
:102A8000808380913A0281115CCF81E080931502AE
:102A900084EA8093BC0010923B0226CF85EC8093A1
:102AA000BC0010923B0280911402803230F4E0911D
:102AB0001402F0E0EC50FE4F10826091140270E0BE
:102AC000E091A802F091A90284EF91E0099510929B
:102AD00014020ACF1092390234CF1F920F920FB610
:102AE0000F9211242F933F934F935F936F937F9394
:102AF0008F939F93AF93BF93CF93DF93EF93FF9306
:102B00008091B001C0912104D0E087FF24C01092D1
:102B10008500109284008091B0018F5F8093B00196
:102B20008091B001082E000C990B8C179D0724F49E
:102B30008091B0018C30C4F1809184009091850027
:102B4000049680349C4908F47AC080918400909166
:102B50008500049676C08091B001082E000C990B78
:102B60008C179D07C4F6E091B0018E2FEE0F990BE4
:102B7000FC01EE0FFF1FE80FF91FE350FC4F8081AF
:102B800086FFC9CFE091B0018E2FEE0F990BFC01AB
:102B9000EE0FFF1FE80FF91FE350FC4F808160E04C
:102BA0008F730E946D04B7CF20918400309185000F
:102BB000E091B0018E2FEE0F990BFC01EE0FFF1F7D
:102BC000E80FF91FE350FC4F81819281820F931F20
:102BD0009093890080938800E091B0018E2FEE0FD2
:102BE000990BFC01EE0FFF1FE80FF91FE350FC4F9C
:102BF000808186FF11C0E091B0018E2FEE0F990BFE
:102C0000FC01EE0FFF1FE80FF91FE350FC4F80811E
:102C100061E08F730E946D04FF91EF91DF91CF917E
:102C2000BF91AF919F918F917F916F915F914F91E4
:102C30003F912F910F900FBE0F901F90189580E439
:102C40009CE990938900809388008FEF8093B00176
:102C5000E3CF1F920F920FB60F9211242F933F9341
:102C60004F935F936F937F938F939F93AF93BF9394
:102C7000EF93FF93809192040E944404982F209137
:102C80009604309197042F3F320731F02F5F3F4F6A
:102C9000309397042093960480919104811135C05C
:102CA000911116C020919604309197042536310574
:102CB00058F01092980430939A042093990481E07C
:102CC0008093950480939104109297041092960437
:102CD00080919404882341F080919304911161C004
:102CE00061E0811161C02D9AFF91EF91BF91AF9189
:102CF0009F918F917F916F915F914F913F912F9114
:102D00000F900FBE0F901F90189580919104813005
:102D1000A1F49130E9F6E09195048E0F809395042B
:102D2000F0E0EE0FFF1FE756FB4F20919604309125
:102D300097043183208382E0C5CF80919104823053
:102D400039F5911119C0E091950481E0E43620F045
:102D50008093980483E0B6CF8E0F80939504F0E0C3
:102D6000EE0FFF1FE756FB4F20919604309197041A
:102D70003183208381E0A6CF20919604309197047F
:102D80002536310508F4A4CF83E080939104A0CFC9
:102D900080919104833009F09BCF992309F494CF5B
:102DA00097CF882321F060E00E946D049DCF2D987D
:102DB0009BCFCF92DF92EF92FF920F931F93E82F5A
:102DC000F92F05C0015011092109310961F19081E4
:102DD00096239417B9F305C001501109210931094F
:102DE00011F1908196239413F7CFC12CD12CE12CB3
:102DF000F12C0AC08FEFC81AD80AE80AF80A0C1595
:102E00001D052E053F0579F080818623841791F3F7
:102E10006C2D7D2D8E2D9F2D1F910F91FF90EF908A
:102E2000DF90CF90089560E070E080E090E01F9127
:102E30000F91FF90EF90DF90CF900895109257037D
:102E40001092560388EE93E0A0E0B0E08093580320
:102E500090935903A0935A03B0935B0326E431E0A7
:102E6000309355032093540325EC30E030936103F5
:102E70002093600324EC30E03093630320936203DB
:102E800020EC30E0309365032093640321EC30E0C4
:102E9000309367032093660322EC30E0309369039C
:102EA0002093680326EC30E030936B0320936A0391
:102EB00010926D0310926E0310926F0310927003C4
:102EC0001092F4031092F3038093F5039093F603AA
:102ED000A093F703B093F80388E591E09093F20391
:102EE0008093F103109292041092940485E08093F1
:102EF0008E0484E080938F0460E085E00E949B0450
:102F000060E080918F040E949B0460E080918E04B9
:102F10000E946D0460E080918F040E946D04E6E7DA
:102F2000F4E02EE834E04FEF68EB7BE08091210481
:102F30008C3008F0D7C091E0980F909321048083E3
:102F400090E0DC01AA0FBB1FA80FB91FA350BC4F14
:102F500012967C936E93119733962E173F0731F795
:102F6000809121048C3008F0BFC091E0980F9093BD
:102F700021048093730490E0FC01EE0FFF1FE80F23
:102F8000F91FE350FC4F88EB9BE092838183109202
:102F90006904109268048CE791E090936704809331
:102FA000660410926F0480E280936A0480E180934B
:102FB000700482E080937104109272048CE080931C
:102FC00058048BE080935904EAEBF0E0E491E0933D
:102FD0005A04E6EAF0E0E491E0935B0480E89EE3C3
:102FE000A0E0B0E08093600490936104A093620439
:102FF000B0936304109237041092360488EE93E085
:10300000A0E0B0E08093380490933904A0933A0490
:10301000B0933B048AE691E09093350480933404A6
:1030200010924B0410924A0410924D0410924C04DA
:1030300010924F0410924E041092510410925004BA
:10304000609152046E7F6D7F60935204669561704B
:1030500081E0682783E00E946D0461E083E00E94C4
:103060009B04E1EBF0E0E491E0934404EDE9F0E04F
:10307000E491F0E0EE0FFF1FE057FF4F8591949130
:10308000909346048093450460E082E00E949B0494
:103090008091520481FD04C061E082E00E946D04D1
:1030A00082E080934004E0EBF0E0E491E09341049F
:1030B000ECE9F0E0E491F0E0EE0FFF1FEA57FF4F7C
:1030C0008591949190934304809342048EE294E01E
:1030D0000E94E71288E294E00E94E71282E294E004
:1030E0000C94E712408338CF8FEF809373044FCF57
:1030F000CF93DF93CDB7DEB7E0970FB6F894DEBF7E
:103100000FBECDBF789484B5826084BD84B58160E4
:1031100084BD85B5826085BD85B5816085BD8091A2
:103120006E00816080936E0010928100809181001A
:103130008260809381008091810081608093810012
:10314000809180008160809380008091B1008460D4
:103150008093B1008091B00081608093B000809135
:103160007A00846080937A0080917A0082608093F4
:103170007A0080917A00816080937A0080917A0051
:10318000806880937A001092C100E0916403F0910E
:10319000650382E08083E0916003F0916103108217
:1031A000E0916203F091630380E1808310926C03ED
:1031B000E0916803F091690386E08083E091660303
:1031C000F0916703808180618083E0916603F091D4
:1031D0006703808188608083E0916603F0916703D4
:1031E000808180688083E0916603F091670380812D
:1031F0008F7D80830E94190812E061E0812F0E9478
:103200009B0460E0812F0E946D041F5F1E30A9F7B0
:103210001092AF021092AE021092AD021092AC0268
:103220000E94D6088CE093E09093AB028093AA02B0
:103230008DE093E09093A9028093A80210926B0412
:1032400080917104823018F098E090936B04809321
:103250006E0462E370E080E090E00E9413066091EB
:10326000720486E694E00E949A0968EE73E080E0BA
:1032700090E00E94130660E386E694E00E945811F5
:103280000BE416E4C8010197F1F760E386E694E0E9
:103290000E945811C8010197F1F760E386E694E0B7
:1032A0000E94581183E592E00197F1F760E286E60B
:1032B00094E00E94581180916B0480620E948811F2
:1032C00084E080936C048CE00E9488110E94BE11FF
:1032D00082E080936D0486E00E94881182E00E9463
:1032E00088118BE39FE10197F1F788E080937204E6
:1032F00060E086E694E00E949A090E94BE1160E0B8
:1033000080E00E948E1167E871E086E694E00E94FA
:10331000D41161E080E00E948E1168E971E086E6D8
:1033200094E00E94D4118FEF8093040180930501F3
:10333000809306018093070110E0812F88608093BD
:10334000900484E091E00E94670564E670E080E00C
:1033500090E00E9413061F5F173079F7E2E0CE2E4F
:10336000D12CFBE28F2EF1E09F2E0EE111E060E008
:10337000662E61E0762E5801D5018D915D01F30135
:1033800081933F0180E091E00E9467056AE070E070
:1033900080E090E00E941306F4E06F16F1E07F06F3
:1033A00059F76AE070E080E090E00E9413060F5F3A
:1033B0001F4F80169106D9F66AE070E080E090E039
:1033C0000E941306CA94CD2809F051C18BE0809366
:1033D00090048AE191E00E94670568EE73E080E066
:1033E00090E00E94130668EC70E080E090E00E949C
:1033F0001306AE014F5D5F4F5AA749A7CE01429613
:103400009CA78BA784E593E00E946C03181619060D
:10341000E4F584E593E00E944A039091F702853534
:1034200009F029C1911127C18091F6028F3F29F43B
:1034300081E08093F5028093F7028091F5028F5F1F
:10344000843308F030C18093F502D090F702DD207C
:10345000E1F08091F402811118C08091F50284306E
:10346000A0F01092F7028091C502B090C6020B2D19
:1034700010E02091C402223009F4C9C10CF018C137
:10348000213009F41EC11092F50284E394E00E94F9
:10349000CA07181619067CF484E394E00E94E20738
:1034A00089831A8241E050E0BE016F5F7F4F8EE258
:1034B00094E00E9490126FE070E080E090E00E9443
:1034C00013060CE013E062E0D62EF8018191919191
:1034D0008F01892BD9F460E08D2D0E949B040E94FE
:1034E000BE0A8D2D0E944404BC01990F880B990BD4
:1034F0000E9469220E949A0A8D2D0E94950A81E0FD
:103500000E94950A0E94E3110E94E911D394FEE003
:10351000DF12DBCF56E3A52E51E0B52E10E0D5012A
:103520008D919D915D01892B09F064C044E1C42E09
:10353000D12C01E0F12E6894F6F8F0927C00809195
:103540007A00806480937A0080917A0086FDFCCFB7
:103550008091780060917900762F682F072E000CFB
:10356000880B990B0E9469223B014C01002321F03A
:103570006DA77EA68FA798AA2DEC3CEC4CEC5DE3E2
:103580006DA57EA58FA598A90E94C8221B012C01BC
:1035900026E636E646E65FE3B301C4010E94C82290
:1035A0009B01AC01C201B1010E9429246DA77EA735
:1035B0008FA798ABB1E0CB1AD10800E009F0BDCFDE
:1035C0000E94BE0A6DA57EA58FA598A90E94072519
:1035D000072E000C880B990B0E9469220E949A0A00
:1035E000812F0E94950A82E00E94950A0E94E311B1
:1035F0000E94E9111F5F163009F091CF80910703F7
:10360000882309F4D2C40E944606C12CD12C30EC88
:10361000E32E3FE7F32E882329F080E00E94820208
:103620006B017C010E944606412C512C20EC622E3D
:103630002FE7722E882329F081E00E9482022B015D
:103640003C010E944606882359F0809159048B3032
:1036500038F08D3008F45CC48551823008F4FEC423
:10366000812C912C90ECA92E9FE7B92E6FC4CC240D
:10367000C394D12C7ACE8093F602992309F4DDCE3F
:10368000E091F502E23039F48093F402F0E0E05486
:10369000FD4F8083D2CEE330C8F39091F402915075
:1036A0009093F402F3CF1092F5021092F702CDCE70
:1036B000233009F423C2243009F0E5CE0E94E91139
:1036C000E2CE873009F040C0D090C7028D2D90E047
:1036D00030910303311129C02093030310930B0190
:1036E00000930A019093090180930801000F111FB4
:1036F000F801E85FFC4F21E030E031832083880F40
:10370000991FFC01E85FFC4F3183208361E08B2D22
:103710000E949B0460E08D2D0E949B0462E370E098
:1037200080E090E00E941306AECE20910A01309115
:103730000B010217130791F620910801309109013E
:103740002817390759F69FCE90E08930910571F41A
:103750000E94190860E082E00E949B0480910203AD
:10376000811191CE81E0809302038DCE8A30910544
:1037700029F40E94190861E083E0EECFA2E0BA12BA
:103780000DC084E394E00E940308109202030E949B
:10379000F41210920D0310920C0375CE0330110534
:1037A00069F484E394E00E940308109202030E94EB
:1037B000F41210920F0310920E0365CE8C30910517
:1037C00071F480910703811103C081E080930703A6
:1037D00081E090E090932103809320039FCF08978E
:1037E00071F480910403811103C081E0809304038C
:1037F00081E090E090930D0380930C038FCF000F36
:10380000111FF801E85FFC4F118210823CCE20911D
:103810000A0130910B010217130739F020910801BA
:10382000309109010217130751F41092030310920B
:10383000FA021092FB021092FC021092FD028430F8
:10384000B9F17CF4813059F1833009F037CFC801E8
:103850000E94840A6091C70270E08B2D0E9491053E
:103860002DCF8C3009F437C18D3009F027CFC090AF
:10387000C702D090C902B090CB020091CD0210E0F7
:103880008C2D90E00E94840A8D2D90E00E94840A85
:103890006B2D8C2D0E946D04B8018D2DDFCFC801DA
:1038A0000E94840A6091C7028B2D0E946D0406CF8E
:1038B000C8010E94840AC090C702B4EBBC1508F48A
:1038C000FDCEF09080009090810020908800309094
:1038D000890080906F0065E070E080E090E00E94D9
:1038E0001306E0EBF2E090E080E0219131910217C5
:1038F000130751F0232B09F0E6C0FC01EE0FFF1F68
:10390000E055FD4F11830083FC01EE0FFF1FE80F10
:10391000F91FEA58FB4F80812181928180937304C3
:1039200020937404909375048C3008F055C061E0C6
:103930008B2D0E949B0480917304282F30E0F901A5
:10394000EE0FFF1FE20FF31FE350FC4F9B2D9F7301
:10395000B0802B2D207CB22EB92AB0821092740434
:10396000109275042CE0622F0E944225829FB001C4
:10397000112430E020E0AB01420F531FFA01EE0F9B
:10398000FF1FE40FF51FE350FC4F908196FD16C01A
:103990002F5F3F4F2C30310571F781110FC010920E
:1039A000800082E080938100109285001092840054
:1039B000B19A80916F00826080936F00E0917304F0
:1039C0008E2F90E0FC01EE0FFF1FE80FF91FE35070
:1039D000FC4F808180648083D09073048091750453
:1039E00048E5A42E42E0B42EA81AB10887FDB3948E
:1039F000AA0CBB1CAA0CBB1C8091740408E810E044
:103A0000081B110987FD1395000F111F000F111FCF
:103A10002801012E000C6608770895010B2C000C7C
:103A2000440B550B2419350946095709AC2DB0E054
:103A30000E94D72324EB30E040E050E00E94B823FE
:103A4000BA01A901440D551D661D771DABE0AD15EA
:103A5000D0F0401751072CF085014A155B050CF496
:103A60008A0102501109000F111F2FB7F8948D2DF4
:103A700090E0FC01EE0FFF1FE80FF91FE350FC4F31
:103A8000128301832FBF64E670E080E090E00E9423
:103A90001306E09173048E2F90E0FC01EE0FFF1FE0
:103AA000E80FF91FE350FC4F80818F7B8083F092F9
:103AB00080009092810080926F00332430928900C0
:103AC00020928800FBCD01968830910509F00DCF3A
:103AD00090E080E019CF6AE070E080E090E00E9422
:103AE00013066AE070E080E090E00E9413066AE04E
:103AF00070E080E090E00E941306E0CD8B3009F486
:103B00004DC0D4F4883009F4ADC18A3009F0D6CD67
:103B1000A0ECB2E0FE013196BF0117968C91179789
:103B2000819312964BA55CA54E175F07B1F784E30E
:103B300094E00E94D411C2CD8C3009F458C1803178
:103B400009F0BCCDCE0101960E94E712B091C702E8
:103B50006B2F70E05091CD024091CF02A091D10225
:103B60002A2F30E08091DB0290E0EBE4F0E0319727
:103B7000F1F7B13009F09DC0852F87708860809380
:103B8000900484E091E00E94670568EE73E080E0B5
:103B900090E00E941306CE0101966FC0CE0181967F
:103BA0000E94E712CE0101960E94E7129091C7028F
:103BB000292F30E0B090C9028091CB02E82FE1506C
:103BC000FF0B8F014091CD02EBE4F0E03197F1F76C
:103BD000923009F05EC0F1E0FB15C0F4101611063A
:103BE000ACF46FEF6B0D81500E948E11D12CC12C63
:103BF00041E050E066EA71E0CE0101960E94901229
:103C00002FEFC21AD20AC016D10694F300EC12E0CC
:103C1000D8011F968C9118165CF48FA318A641E06A
:103C200050E0BE01695D7F4FCE0181960E949012E7
:103C30000E5F1F4FE2EEF2E0E017F10749F74DA1EA
:103C40005EA169A17AA1CE0101960E949012809195
:103C5000CF028130A9F4B092F8028091CA02809319
:103C6000F9028091F8029091F9020E943712CE0178
:103C700001960E946012CE0181960E9460121ECDB4
:103C80004D815E8169817A8186E694E00E940E030F
:103C9000EECF2330310519F40E94BE11E8CF243055
:103CA000310529F788E1413009F08CE10E94881143
:103CB000DECF6230710579F48FE0413009F087E0A2
:103CC0008093900484E091E00E94670564EF71E0C6
:103CD00080E090E05ECF6330710509F05CCFA130E9
:103CE00059F52091D30230E068EE73E0869F4001E1
:103CF000879F900C969F900C1124E6E3F1E07EE202
:103D0000A72E71E0B72E8E010F5D1F4F7291629149
:103D1000C9010E9462256115710509F050C0411169
:103D200009C0DD2039F0802F59A5851B50E0833074
:103D300009F04DC05FE34BC02230310559F450917A
:103D4000D3022091D50230E06AE0569F200D311D4C
:103D50001124CACF2330310591F45091D302209120
:103D6000D502AAE02A9F90011124B4E65B9F200DA2
:103D7000311D11245091D702250F311DB5CF2430AC
:103D80003105D1F45091D30268EE73E0569F900153
:103D9000579F300D11245091D502E4E65E9F200D0F
:103DA000311D11245091D702FAE05F9F200D311D83
:103DB00011245091D902E0CF30E020E095CF6F7010
:103DC000A62FB0E0A25EBE4F5C919C01D12CD80121
:103DD0005D938D01AE16BF0609F098CFCE01819696
:103DE0000E946705B401990C880B990BD2CE2091E3
:103DF000C702822F90E0211120C062E08091580418
:103E00000E949B042FB7F89480912403909125037E
:103E1000A0912603B09127032FBF805D9740A10991
:103E2000B10980935C0490935D04A0935E04B09309
:103E30005F0487E38093650441CC8130910549F4A8
:103E40002091CD02211109C01092060310920503A2
:103E500035CC8230910509F031CC909306038093E4
:103E600005032CCCC8010E94840AD090C7020D2DF6
:103E700010E00E94BE1160E080E00E948E1163EAB3
:103E800071E086E694E00E94D41160E084E00E9434
:103E90008E11C8010E943712D11028C012E0109371
:103EA000920481E0809394041092930461E08DE089
:103EB0000E949B04F8941093B0001093B10084E624
:103EC0008093B3008093B4001092B20084E080939A
:103ED000700080919104833011F4109291047894D1
:103EE00060E0809192040E949B04E8CB01301105B0
:103EF00041F480919104833009F0E0CB1092910459
:103F0000DDCB0230110509F0D9CB0E94C40AD6CB13
:103F10006091540470E090E080E00E9469222DECF2
:103F20003CEC4CEC5DE30E94C8224B015C016091CB
:103F3000530470E090E080E00E9469229B01AC0194
:103F4000C501B4010E9429244B015C01A70196011F
:103F5000C701B6010E943D2581116CC2A3019201E7
:103F6000C301B2010E943D25811164C2A5019401E3
:103F7000C501B4010E943D2581115CC20E94BE0AA8
:103F80008091050390910603892B09F079C0C70140
:103F9000B6010E949A0A86E00E94950A8CE00E946F
:103FA000950A0E94E3110E94E9118091040388237D
:103FB00009F4B9C00E94C40A882309F4B4C00E945D
:103FC000C40A8091450390914603A0914703B091A4
:103FD00048038F3F9F4FAF4FBF4F41F410924503AF
:103FE00010924603109247031092480380914503B4
:103FF00090914603A0914703B091480304E110E07B
:104000008115FFEF9F07F0E4AF07FFEBBF0709F44F
:104010005BC008F08DC10BE010E081154FEF9407F5
:1040200047E4A40748EBB40709F44EC008F04CC1BC
:1040300006E010E081156FEF96076AE5A60765EACE
:10404000B60709F441C078F503E010E081159F4FF1
:10405000AE45B14AC9F10FEF1FEF36C0609153046E
:104060007091540476276727762790E080E00E94BD
:1040700067222DEC3CEC4CEC5DE30E94C82264CF3F
:104080008091050390910603019719F4C301B201D1
:1040900080CF8091050390910603029709F07BCFB2
:1040A000C501B40176CF08E010E081152FEF92072B
:1040B00022E5A2072DEAB20739F009E010E08115E8
:1040C0009F4FAA44B54B39F60E94BE1161E086E0CD
:1040D0000E948E1168EA71E086E694E00E94D41195
:1040E00061E089E00E948E11B80190E080E04AE032
:1040F0000E94F1110E94BE0A83E00E94950A10936B
:10410000F9020093F802802F0E94950A812F0E94E5
:10411000950A86E00E94950A82E00E94950A0E9414
:10412000E3110E94E91180910303882309F46FC011
:1041300010910A0160E0812F0E946D0483E090E0FD
:104140000197F1F761E0812F0E946D0483E290E016
:104150000197F1F760E0812F0E946D0480910801C2
:10416000909109019927FC01E255FF4F6491FC01F0
:10417000E656FF4FE491F0E0EE0FFF1FEA57FF4FC6
:104180008591949100E315E720E030E0462F0E94EE
:10419000D916611571058105910529F06F5F7F4F73
:1041A0008F4F9F4F9F700E94672220E030E048EEC3
:1041B00051E40E94952420E030E040E05FE30E945B
:1041C000C8224B015C0120E030E0A9010E9462227C
:1041D000811117C18090FA029090FB02A090FC021E
:1041E000B090FD020E94BE0AC501B4010E949A0A65
:1041F00080910A010E94950A809108010E94950A07
:1042000087E00E94950A0E94E3110E94E9118091C3
:104210000203882309F424C12FB7F8948091240362
:1042200090912503A0912603B09127032FBF4091C1
:10423000FE025091FF026091000370910103841B04
:10424000950BA60BB70B8C329140A105B10508F078
:1042500007C10E94BE0A1A8219821C821B821E821A
:104260001D8260912E0470912F046115710541F03B
:104270004091320450913304CE0101960E94BC1249
:10428000DD800D2D1E8184E00E94950A8D2D0E94F7
:10429000950AD12CC12CC016D1060CF0BDC08D8161
:1042A0009E81C816D90608F0B5C089819A81009709
:1042B00009F4B0C08C0D9D1DDC018C910E94950A03
:1042C000BFEFCB1ADB0AE7CF06E110E081155FEF05
:1042D000950754E4A5075BEBB50709F4F5CEA0F408
:1042E0000CE010E08115EFEF9E07E6E4AE07E9EB86
:1042F000BE0709F4E9CE0AE010E081159F4FA544FE
:10430000BA4B09F4E1CEA7CE05E110E081152FEFFD
:10431000920723E4A2072CEBB20709F4D5CE07E0FD
:1043200010E081159F4FA244BD4B09F4CDCE93CE32
:104330000EE110E081155FEF950755E1A5075AEEF4
:10434000B50709F4C1CE48F504E610E08115EFEF9A
:104350009E07E9E1AE07E6EEBE0709F4B5CE48F4E4
:1043600005E010E081159F4FAC41B34E09F4ACCE8F
:1043700072CE02E010E081154FEF940748E1A407E8
:1043800047EEB40709F4A0CE10E000E081159F4F7E
:10439000A641B94E09F498CE5ECE0FE110E081152A
:1043A0006FEF960769E0A60766EFB60709F48CCEB3
:1043B000A0F408EC10E08115FFEF9F07FDE0AF07C8
:1043C000F2EFBF0709F480CE01E010E081159F4FA6
:1043D000AC40B34F09F478CE3ECE04E010E0811536
:1043E0004FEF940748E0A40747EFB40709F46CCEF9
:1043F00000E210E081159F4FA740B84F09F464CE4A
:104400002ACE8092FA029092FB02A092FC02B09215
:10441000FD02E8CE80E052CFCE0101960E946012EC
:1044200082E00E94950A89E00E94950A0E94E311A9
:104430000E94E9116AE070E080E090E00E941306BB
:1044400080E090E0892B11F40C94021A0E9478030A
:10445000882311F40C94021A0E9400000C94021A92
:1044600050E040E066E871E08EE294E00E94BC1209
:104470002FB7F8948091240390912503A0912603EF
:10448000B09127032FBF8093FE029093FF02A09369
:104490000003B0930103CECF82E294E00E94601249
:1044A00088E294E00E9460128EE294E00E94601222
:1044B0008AE691E0909335048093340484E394E099
:1044C0000C9403080E94A42208F481E00895E89463
:1044D00009C097FB3EF490958095709561957F4F4C
:1044E0008F4F9F4F9923A9F0F92F96E9BB279395FA
:1044F000F695879577956795B795F111F8CFFAF40A
:10450000BB0F11F460FF1BC06F5F7F4F8F4F9F4F3A
:1045100016C0882311F096E911C0772321F09EE898
:10452000872F762F05C0662371F096E8862F70E0FE
:1045300060E02AF09A95660F771F881FDAF7880FD8
:104540009695879597F90895990F0008550FAA0B2E
:10455000E0E8FEEF16161706E807F907C0F0121696
:104560001306E407F50798F0621B730B840B950B99
:1045700039F40A2661F0232B242B252B21F40895EE
:104580000A2609F4A140A6958FEF811D811D08958B
:104590000E94DB220C944C230E943E2338F00E94A0
:1045A000452320F0952311F00C9435230C943B23E4
:1045B00011240C9480230E945D2370F3959FC1F316
:1045C000950F50E0551F629FF001729FBB27F00DC1
:1045D000B11D639FAA27F00DB11DAA1F649F662716
:1045E000B00DA11D661F829F2227B00DA11D621F65
:1045F000739FB00DA11D621F839FA00D611D221F1F
:10460000749F3327A00D611D231F849F600D211D02
:10461000822F762F6A2F11249F5750409AF0F1F085
:1046200088234AF0EE0FFF1FBB1F661F771F881FEE
:1046300091505040A9F79E3F510580F00C943523CE
:104640000C9480235F3FE4F3983ED4F386957795EE
:104650006795B795F795E7959F5FC1F7FE2B880F94
:10466000911D9695879597F9089597F99F6780E82A
:1046700070E060E008959FEF80EC089500240A94B4
:104680001616170618060906089500240A9412162D
:104690001306140605060895092E0394000C11F460
:1046A000882352F0BB0F40F4BF2B11F460FF04C00D
:1046B0006F5F7F4F8F4F9F4F089557FD9058440F66
:1046C000551F59F05F3F71F04795880F97FB991F71
:1046D00061F09F3F79F0879508951216130614062E
:1046E000551FF2CF4695F1DF08C0161617061806BB
:1046F000991FF1CF86957105610508940895E89496
:10470000BB2766277727CB0197F90895DB018F93A5
:104710009F930E94D723BF91AF91A29F800D911DBF
:10472000A39F900DB29F900D11240895A1E21A2E1F
:10473000AA1BBB1BFD010DC0AA1FBB1FEE1FFF1F45
:10474000A217B307E407F50720F0A21BB30BE40B95
:10475000F50B661F771F881F991F1A9469F76095DC
:104760007095809590959B01AC01BD01CF01089596
:10477000052E97FB1EF400940E94CF2357FD07D00F
:104780000E94962307FC03D04EF40C94CF2350953F
:104790004095309521953F4F4F4F5F4F089590952D
:1047A0008095709561957F4F8F4F9F4F08950E9420
:1047B0001924A59F900DB49F900DA49F800D911D6D
:1047C000112408952F923F924F925F926F927F92A1
:1047D0008F929F92AF92BF92CF92DF92EF92FF9211
:1047E0000F931F93CF93DF93CDB7DEB7CA1BDB0BBD
:1047F0000FB6F894DEBF0FBECDBF09942A88398862
:1048000048885F846E847D848C849B84AA84B98468
:10481000C884DF80EE80FD800C811B81AA81B98174
:10482000CE0FD11D0FB6F894DEBF0FBECDBFED0188
:104830000895A29FB001B39FC001A39F700D811D79
:104840001124911DB29F700D811D1124911D089599
:104850005058BB27AA270E9440240C944C230E9446
:104860003E2338F00E94452320F039F49F3F19F48D
:1048700026F40C943B230EF4E095E7FB0C943523CF
:10488000E92F0E945D2358F3BA1762077307840764
:10489000950720F079F4A6F50C947F230EF4E095AB
:1048A0000B2EBA2FA02D0B01B90190010C01CA01EA
:1048B000A0011124FF27591B99F0593F50F4503E95
:1048C00068F11A16F040A22F232F342F4427585F87
:1048D000F3CF469537952795A795F0405395C9F79F
:1048E0007EF41F16BA0B620B730B840BBAF0915057
:1048F000A1F0FF0FBB1F661F771F881FC2F70EC0F6
:10490000BA0F621F731F841F48F4879577956795C8
:10491000B795F7959E3F08F0B0CF9395880F08F0B4
:104920009927EE0F9795879508950E94A9240C94D6
:104930004C230E94452358F00E943E2340F029F466
:104940005F3F29F00C94352351110C9480230C9473
:104950003B230E945D2368F39923B1F3552391F320
:10496000951B550BBB27AA2762177307840738F0DE
:104970009F5F5F4F220F331F441FAA1FA9F335D03B
:104980000E2E3AF0E0E832D091505040E695001CEF
:10499000CAF72BD0FE2F29D0660F771F881FBB1FA9
:1049A000261737074807AB07B0E809F0BB0B802D87
:1049B000BF01FF2793585F4F3AF09E3F510578F0B3
:1049C0000C9435230C9480235F3FE4F3983ED4F39A
:1049D000869577956795B795F7959F5FC9F7880F87
:1049E000911D9695879597F90895E1E0660F771FD9
:1049F000881FBB1F621773078407BA0720F0621B6A
:104A0000730B840BBA0BEE1F88F7E09508950E9494
:104A10000E256894B1110C94802308950E9465239B
:104A200088F09F5798F0B92F9927B751B0F0E1F06F
:104A3000660F771F881F991F1AF0BA95C9F714C01F
:104A4000B13091F00E947F23B1E008950C947F2350
:104A5000672F782F8827B85F39F0B93FCCF3869558
:104A600077956795B395D9F73EF4909580957095B5
:104A700061957F4F8F4F9F4F08950E94A422880B0E
:104A8000990B0895991B79E004C0991F961708F0B7
:104A9000961B881F7A95C9F780950895AA1BBB1BA2
:104AA00051E107C0AA1FBB1FA617B70710F0A61B2E
:104AB000B70B881F991F5A95A9F780959095BC014F
:104AC000CD01089597FB072E16F4009407D077FDCB
:104AD00009D00E944E2507FC05D03EF490958195A3
:104AE0009F4F0895709561957F4F0895002E08306F
:104AF00090F0982F872F762F652F542F432F322F2A
:104B000022270850F4CF220F331F441F551F661F62
:104B1000771F881F991F0A95B2F7002D0895EE0F91
:104B2000FF1F0590F491E02D09940F931F93CF93ED
:104B3000DF938230910510F482E090E0E09163050C
:104B4000F091640530E020E0B0E0A0E0309799F407
:104B50002115310509F44AC0281B390B24303105D1
:104B6000D8F58A819B816115710589F1FB019383D9
:104B70008283FE0111C04081518102811381481757
:104B80005907E0F04817590799F4109761F0129609
:104B90000C93129713961C933296CF01DF91CF910D
:104BA0001F910F9108950093630510936405F4CF4E
:104BB0002115310551F04217530738F0A901DB01E7
:104BC0009A01BD01DF01F801C1CFEF01F9CF909348
:104BD000640580936305CDCFFE01E20FF31F81933F
:104BE00091932250310939832883D7CF20916105D1
:104BF00030916205232B41F420910E0130910F0179
:104C0000309362052093610520910C0130910D01D4
:104C10002115310541F42DB73EB740911001509157
:104C20001101241B350BE0916105F0916205E2173B
:104C3000F307A0F42E1B3F0B2817390778F0AC01BF
:104C40004E5F5F4F2417350748F04E0F5F1F50939C
:104C5000620540936105819391939FCFF0E0E0E07E
:104C60009CCFCF93DF930097E9F0FC01329713823A
:104C70001282A0916305B0916405ED0130E020E05F
:104C80001097A1F420813181820F931F209161053B
:104C9000309162052817390709F061C0F093620569
:104CA000E0936105DF91CF910895EA01CE17DF0708
:104CB000E8F54A815B819E0141155105B1F7E90193
:104CC000FB83EA8349915991C40FD51FEC17FD0767
:104CD00061F4808191810296840F951FE901998387
:104CE0008883828193819B838A83F0E0E0E012963F
:104CF0008D919C9113970097B9F52D913C91119747
:104D0000CD010296820F931F2091610530916205BB
:104D10002817390739F6309751F51092640510922B
:104D20006305B0936205A0936105BCCFD383C283B2
:104D300040815181840F951FC817D90761F44E5FD8
:104D40005F4F88819981480F591F518340838A8121
:104D50009B81938382832115310509F0B0CFF093B5
:104D60006405E09363059ECFFD01DC01C0CF138293
:104D70001282D7CFB0E0A0E0E0ECF6E20C94E4239E
:104D80008C01009751F4CB010E9495258C01C8013C
:104D9000CDB7DEB7E0E10C940024FC01E60FF71F6D
:104DA0009C0122503109E217F30708F49DC0D90194
:104DB000CD91DC911197C617D70798F0C530D10572
:104DC00030F3CE0104978617970708F3C61BD70B5D
:104DD0002297C193D1936D937C93CF010E9431268A
:104DE000D6CF5B01AC1ABD0A4C018C0E9D1EA09162
:104DF0006305B0916405512C412CF12CE12C1097E6
:104E000031F580916105909162058815990509F049
:104E10005CC04616570608F058C080910C0190916E
:104E20000D01009741F48DB79EB74091100150914C
:104E30001101841B950BE817F90708F055C0F09392
:104E40006205E0936105F90171836083A0CF8D91C4
:104E50009C91119712966C90129713967C901397D1
:104E6000A815B90559F56C0142E0C40ED11CCA144D
:104E7000DB0420F1AC014A195B09DA01129615979F
:104E800080F06282738251834083D9016D937C9359
:104E9000E114F10471F0D7011396FC93EE9312978D
:104EA00076CF22968C0F9D1FF90191838083F301A9
:104EB000EFCFF0936405E093630569CF4816590678
:104EC00008F42C017D01D3019ACFCB010E949525D6
:104ED0007C01009749F0AE01B8010E947727C80114
:104EE0000E943126870153CF10E000E050CFFB0134
:104EF000DC0102C001900D9241505040D8F7089556
:104F0000FB01DC0101900D920020E1F7089510E013
:104F1000C2E6D0E004C0FE010E948F252196C33670
:084F2000D107C9F7F894FFCF97
:104F2800FFFFFFFFFFFFFFFF0C000D0000006505FE
:104F3800800000004000140054007F70467F3F0648
:104F48005B4F666D7D077F6F777C395E79710100F5
:104F58000A006400E80300000000000000000000F0
:104F6800000000000000AE030E033B03FB036C03CC
:104F78004A035E03000000006B093E09810A6D07C1
:104F8800370924091509000000006E070E03810A7D
:104F98006D07CA07E207550700000000CE110E038F
:104FA800810AAE080D0A0048656C6C6F205269636F
:104FB80068536869656C64007769746820456E7425
:0C4FC800727900697242200049523D00DD
:00000001FF
