:100000000C9445050C946D050C946D050C94072516
:100010000C9407250C9407250C946D050C94092469
:100020000C946D050C946D050C946D050C949E2636
:100030000C946D050C946D050C946D050C946D0578
:100040000C94BD240C946D050C948B240C946524A5
:100050000C946D050C946D050C946D050C946D0558
:100060000C947F250C946D0500000000003E5B4F52
:100070005B3E3E6B4F6B3E1C3E7C3E1C183C7E3C08
:10008000181C577D571C1C5E7F5E1C00183C180016
:10009000FFE7C3E7FF0018241800FFE7DBE7FF30A6
:1000A000483A060E2629792926407F050507407F14
:1000B00005253F5A3CE73C5A7F3E1C1C08081C1C87
:1000C0003E7F14227F22145F5F005F5F06097F017D
:1000D0007F006689956A606060606094A2FFA29468
:1000E00008047E040810207E201008082A1C080836
:1000F0001C2A08081E101010100C1E0C1E0C303884
:100100003E3830060E3E0E06000000000000005F84
:1001100000000007000700147F147F14242A7F2AA0
:100120001223130864623649562050000807030062
:10013000001C2241000041221C002A1C7F1C2A08AE
:10014000083E080800807030000808080808000011
:1001500060600020100804023E5149453E00427F85
:10016000400072494949462141494D331814127FD4
:100170001027454545393C4A494931412111090774
:100180003649494936464949291E000014000000F5
:1001900040340000000814224114141414140041C7
:1001A00022140802015909063E415D594E7C121184
:1001B000127C7F494949363E414141227F414141BC
:1001C0003E7F494949417F090909013E4141517337
:1001D0007F0808087F00417F41002040413F017FA8
:1001E000081422417F404040407F021C027F7F0470
:1001F00008107F3E4141413E7F090909063E4151B9
:10020000215E7F09192946264949493203017F01A8
:10021000033F4040403F1F2040201F3F4038403FA9
:10022000631408146303047804036159494D4300BF
:100230007F4141410204081020004141417F0402F6
:10024000010204404040404000030708002054548D
:1002500078407F284444383844444428384444286B
:100260007F385454541800087E090218A4A49C78BE
:100270007F0804047800447D40002040403D007F1A
:100280001028440000417F40007C047804787C08FA
:100290000404783844444438FC18242418182424CE
:1002A00018FC7C08040408485454542404043F44B3
:1002B000243C4040207C1C2040201C3C4030403CE2
:1002C00044281028444C9090907C4464544C440042
:1002D00008364100000077000000413608000201A6
:1002E0000204023C2623263C1EA1A161123A404092
:1002F000207A38545455592155557941225454780F
:1003000042215554784020545579400C1E527212A7
:100310003955555559395454545939555454580030
:1003200000457C410002457D420001457C407D1234
:1003300011127DF0282528F07C5455450020545496
:100340007C547C0A097F4932494949323A44444441
:100350003A324A4848303A4141217A3A424020787C
:10036000009DA0A07D3D4242423D3D4040403D3C7D
:1003700024FF2424487E4943662B2FFC2F2BFF09A2
:1003800029F620C0887E0903205454794100004496
:100390007D413048484A32384040227A007A0A0A81
:1003A000727D0D19317D2629292F282629292926F4
:1003B00030484D4020380808080808080808382F39
:1003C00010C8ACBA2F102834FA00007B00000814C3
:1003D0002A142222142A14085500550055AA55AA99
:1003E00055AAFF55FF55FF000000FF00101010FF39
:1003F00000141414FF001010FF00FF1010F010F094
:10040000141414FC001414F700FF0000FF00FF1484
:1004100014F404FC141417101F10101F101F1414D0
:10042000141F00101010F0000000001F101010101A
:100430001F10101010F010000000FF10101010100E
:1004400010101010FF10000000FF140000FF00FF4C
:1004500000001F10170000FC04F4141417101714E8
:1004600014F404F40000FF00F7141414141414140A
:10047000F700F7141414171410101F101F1414147D
:10048000F4141010F010F000001F101F0000001FE7
:1004900014000000FC140000F010F01010FF10FF1A
:1004A000141414FF141010101F00000000F010FFAF
:1004B000FFFFFFFFF0F0F0F0F0FFFFFF0000000093
:1004C00000FFFF0F0F0F0F0F3844443844FC4A4A17
:1004D0004A347E02020606027E027E0263554941CC
:1004E000633844443C04407E201E2006027E020203
:1004F00099A5E7A5991C2A492A1C4C7201724C3017
:100500004A4D4D303048784830BC625A463D3E49ED
:100510004949007E0101017E2A2A2A2A2A44445F91
:10052000444440514A444040444A51400000FF0185
:1005300003E080FF000008086B6B08361236243693
:10054000060F090F060000181800000010100030F8
:1005500040FF0101001F01011E00191D1712003C80
:100560003C3C3C0000000000000103070F1F3F7FE0
:100570000080C0E0F0F8FCFE00000008000201006E
:10058000000304070000000000000000020000005B
:1005900000240027002A00DB40A4A62EAF2000A1E3
:1005A000C8D300408DAED580A800006000000000D8
:1005B00000000000000000000000E000000000005B
:1005C000000000000000000001E00000000000004A
:1005D0000000000000000001F0000000000000002A
:1005E00000000000000003F0000000000000000018
:1005F000000000000007F000000000000000000004
:100600000000000007F800000000000000000000EB
:100610000000000FF800000003C0007E000001E0B1
:10062000007F0FF800000003C000FE000001E000A2
:10063000FFEFF800000003C000FE000001E000FF33
:10064000FFF800000003C000F00000000F007FFE74
:100650007FC0000003C000F00000000F003FFE7FDD
:10066000F83FF1FBCFFCFEF3BC3DEFE01FFE7FFF48
:100670007FFBFFDFFEFEFFBC3DEFE01FC6FFFF7FFD
:10068000FBFFDFFEFEFFBC3DEFE00FE3C7FE787B24
:10069000C3DE1EF0FFBC3DEF0007FF87FC787BC385
:1006A000DE1EF0F83C3DEF0001FFFFF0007BC3C011
:1006B0001EF0F03C3DEF0001F37FE03FFBC3CFFEB7
:1006C000F0F03C3DEF0003E33F807FFBC3DFFEF033
:1006D000F03C3DEF0007E73C00787BC3DE1EF0F006
:1006E0003C3DEF0007FFBE00787BC3DE1EF0F03C10
:1006F0003DEF0007FFFE00787BC3DE1EF0F03C3DBF
:10070000EF000FFFFE007FFBFFDFFEF0F03FFDEF8D
:10071000E00FFFFF007FFBFFDFFEF0F03FFDEFE0AB
:100720000FF9FF003E79F9CF9EF0F01F3DE7E01F83
:10073000F1FF0000000000000000000000001F802A
:10074000FF007FFFFFFFFFFFFFFFFFFFE01C007FB9
:10075000007FFFFFFFFEB46D888D18E000001F00D2
:100760007FFFFFFFFE95AD7DB577E000000F007FB6
:10077000FFFFFFFEA5AD9D8D19E0000006007FFF85
:10078000FFFFFEB5ADEDB57EE0000000000001808A
:1007900000000000000000000003800000000000D6
:1007A0000000000007C0000000000000000000077B
:1007B000C00000000000000000000FC000000000AA
:1007C00000000000001FE00000000000000000002A
:1007D0001FE00000000000000000003FE0000000FB
:1007E0000000000000003FF00000000000000000DA
:1007F000007FF0000000000000001FF87FF0000004
:1008000000000000003FFE7FF0000000000000003C
:100810003FFF7FF0000000000000001FFFFBE00032
:100820000000000000000FFFF9FFC0000000000002
:10083000000FFFF9FFF800000000000007FFF1FFC4
:10084000FF00000000000003FC73FFFF80000000B9
:10085000000001FE3FFFFF80000000000000FF1EBF
:100860000FFF000000000000007FFE1FFC000000E2
:10087000000000003FFFFFF8000000000000000F34
:10088000DFFFE0000000000000001F19FFC00000B3
:1008900000000000003F3CFF0000000000000000DE
:1008A0007E7CF800000000000000007FFE7C00005D
:1008B000000000000000FFFFFC000000000000003E
:1008C00000FFFFFE0000000000000000FFFFFE0030
:1008D00000000000000001FFEFFE0000000000002B
:1008E0000001FFCFFE0000000000000003FF07FE34
:1008F0000000000000000003FC07FE0000000000F4
:10090000000003F003FE0000000000000001800072
:10091000FE000000000000000000007E000000005B
:100920000000000000003E00000000000000000089
:10093000000C000000000000078000FC000003C065
:10094000000000078001FC000003C00000000780D9
:1009500001FC000003C0000000078001E00000006F
:100960001E000000078001E00000001E007FE3F78A
:100970009FF9FDE7787BDFC0FFF7FFBFFDFDFF7844
:100980007BDFC0FFF7FFBFFDFDFF787BDFC0F0F727
:1009900087BC3DE1FF787BDE00F0F787BC3DE1F0EE
:1009A000787BDE0000F787803DE1E0787BDE007F2A
:1009B000F7879FFDE1E0787BDE00FFF787BFFDE171
:1009C000E0787BDE00F0F787BC3DE1E0787BDE007D
:1009D000F0F787BC3DE1E0787BDE00F0F787BC3DB7
:1009E000E1E0787BDE00FFF7FFBFFDE1E07FFBDFAA
:1009F000C0FFF7FFBFFDE1E07FFBDFC07CF3F39FAB
:100A00003DE1E03E7BCFC0000000000000000000A0
:100A10000000FFFFFFFFFFFFFFFFFFFFC0FFFFFF23
:100A2000FFFD68DB111A31C0FFFFFFFFFD2B5AFBF2
:100A30006AEFC0FFFFFFFFFD4B5B3B1A33C0FFFFB8
:100A4000FFFFFD6B5BDB6AFDC0000000002300269A
:100A500000290000000000250028002B00040404E9
:100A60000404040404020202020202030303030357
:100A70000301020408102040800102040810200134
:100A80000204081020009F278C3711241FBECFEFCF
:100A9000D8E0DEBFCDBF12E0A0E0B1E0E8E9F9E7C1
:100AA00002C005900D92AA34B107D9F727E0AAE455
:100AB000B2E001C01D92A430B207E1F715E0C4E432
:100AC000D5E004C02197FE010E94A03AC334D107AB
:100AD000C9F70E94092A0C94BF3C0C9400006623BD
:100AE00029F06A3019F0862F90E008958FEF9FEF7C
:100AF0000895CF92DF92EF92FF920F931F93CF93BF
:100B0000DF93EC01842F8770E1E0F0E0082E01C054
:100B1000EE0F0A94EAF73E2F7E0199E7E90EF11CE9
:100B2000D7019C9110E0923018F41E2F913029F1DA
:100B300050E0487FE8ADF9ADC880D980D601509625
:100B40009C91949F6001959FD00C11246C0D7D2D7C
:100B5000711DDF01A60FB71F011115C08C91812BEC
:100B600083278D932150D1F7DF91CF911F910F9162
:100B7000FF90EF90DF90CF90089530E0D9CF110F24
:100B8000330F222389F39C91912B93279C938F5FA2
:100B9000877021508111F3CF9CADA90FB11DF701D2
:100BA0009081923028F4913009F031E011E0E9CFE2
:100BB00031E0E7CF80E0089580E00895CF93DF93A0
:100BC000C0E2D6E08FAFEAADFBAD0190F081E02D41
:100BD00084E296E00995EAADFBAD0280F381E02D59
:100BE00084E296E0DF91CF910994CF92DF92EF9269
:100BF000FF920F931F93CF93DF9300D000D01F92EB
:100C0000CDB7DEB7C0905E0600915F06E091240686
:100C1000F0912506D188102FF12CE12CE0912406CB
:100C2000F0912506808920915C0630915D061C823A
:100C30001D838B8348E0849FC00111248E9DA001F9
:100C40008F9D500D9E9D500D1124240F351F3A830A
:100C50002983E0912806F09129069E012F5F3F4FDE
:100C600041E06FE084E296E009951F5F812F801BD1
:100C70008C1528F48FEFE81AF80A1D1578F20F90FA
:100C80000F900F900F900F90DF91CF911F910F91C8
:100C9000FF90EF90DF90CF9008950895CF92DF926C
:100CA000EF92FF92CF93DF93B091C906A0E081113C
:100CB000AB2F8091CA0690E0880F991FAC01475B6B
:100CC000554FC090CF06D090D006E090D106F0905E
:100CD000D20630E020E0FA01C591D491E881B90153
:100CE00090E080E0EB23EA130AC02F5F3F4F6C15C2
:100CF0007D058E059F0578F36FEF7FEFCB01DF91C8
:100D0000CF91FF90EF90DF90CF900895CF92DF9238
:100D1000EF92FF92CF93DF93C82F8091C8068C305B
:100D200009F45EC038F48B30F1F060E070E080ECE4
:100D30009FE74FC085518230C0F7D091C4066D2F18
:100D400070E0762F662766277F778091C506682B2F
:100D500090E080E00E94B5372DEC3CEC4CEC5DE37C
:100D60000E94163859C06091C40670E090E080E09F
:100D70000E94B5376B017C01D091C506D7FF0AC030
:100D8000AC019B0160E070E080E89FEB0E94663957
:100D90006B017C01DF706D2F70E090E080E00E94BD
:100DA000B7372DEC3CEC4CEC5DE30E941638A70104
:100DB00096010E946739CC2361F026E636E646EEBE
:100DC0005FE30E94163820E030E040E052E40E94E9
:100DD0006739DF91CF91FF90EF90DF90CF9008952A
:100DE000D091C4066D2F70E090E080E00E94B5378E
:100DF0006B017C016091C5066F7070E090E080E04F
:100E00000E94B7372DEC3CEC4CEC5DE30E941638A9
:100E1000A70196010E946739D7FFCDCF9058CBCF5D
:100E20009B01DC011896ED91FC9141E067E109948A
:100E300008950895AF92BF92CF92DF92EF92FF9202
:100E40000F931F93CF93DF936C017B018B01040FF2
:100E5000151FEB015E01AE18BF08C017D10759F08E
:100E60006991D601ED91FC910190F081E02DC601D0
:100E70000995892B79F7C501DF91CF911F910F91CA
:100E8000FF90EF90DF90CF90BF90AF900895FC015E
:100E9000538D448D252F30E0842F90E0821B930BDF
:100EA000541710F0CF96089501970895FC01918D85
:100EB000828D981761F0A28DAE0FBF2FB11D5D9688
:100EC0008C91928D9F5F9F73928F90E008958FEF2A
:100ED0009FEF0895FC01918D828D981731F0828DDE
:100EE000E80FF11D858D90E008958FEF9FEF089535
:100EF000FC01918D228D892F90E0805C9F4F821B99
:100F000091098F739927089580E094E00E947807F3
:100F100021E0892B09F420E0822F089580E090E001
:100F2000892B29F00E94840781110C9400000895F8
:100F3000FC01A48DA80FB92FB11DA35ABF4F2C914E
:100F4000848D90E001968F739927848FA689B78945
:100F50002C93A089B1898C91837080648C93938D3C
:100F6000848D981306C00288F389E02D80818F7DDF
:100F700080830895EF92FF920F931F93CF93DF9397
:100F8000EC0181E0888F9B8D8C8D98131AC0E889C5
:100F9000F989808185FF15C09FB7F894EE89FF8994
:100FA0006083E889F98980818370806480839FBF32
:100FB00081E090E0DF91CF911F910F91FF90EF9032
:100FC0000895F62E0B8D10E00F5F1F4F0F73112742
:100FD000E02E8C8D8E110CC00FB607FCFACFE8897D
:100FE000F989808185FFF5CFCE010E949807F1CF66
:100FF000EB8DEC0FFD2FF11DE35AFF4FF0829FB7F1
:10100000F8940B8FEA89FB8980818062CFCFCF93E0
:10101000DF93EC01888D8823B9F0AA89BB89E88920
:10102000F9898C9185FD03C0808186FD0DC00FB6C6
:1010300007FCF7CF8C9185FFF2CF808185FFEDCF44
:10104000CE010E949807E9CFDF91CF9108958330B8
:1010500081F028F4813099F08230A9F0089587302A
:10106000A9F08830C9F08430B1F4809180008F7D80
:1010700003C0809180008F7780938000089584B5AD
:101080008F7784BD089584B58F7DFBCF8091B000AC
:101090008F778093B00008958091B0008F7DF9CF55
:1010A000CF93DF93282F30E0F901E858FA4F84916D
:1010B000F901EF58F54FD491F901E35AF54FC49176
:1010C000CC23A1F081110E942708EC2FF0E0EE0F55
:1010D000FF1FE75BF54FA591B491EC91ED2381E003
:1010E00090E009F480E0DF91CF91089580E090E0F6
:1010F000FACF1F93CF93DF93282F30E0F901E85800
:10110000FA4F8491F901EF58F54FD491F901E35A60
:10111000F54FC491CC23A9F0162F81110E94270806
:10112000EC2FF0E0EE0FFF1FED5AF54FA591B491B3
:101130008FB7F894EC91111108C0D095DE23DC93A1
:101140008FBFDF91CF911F910895DE2BF8CF909143
:10115000040189130BC0ECE8F5E0E4919FEF909354
:101160000401E13049F028F0E23061F060E00C94D5
:10117000790810926E00FACF90916F009D7F909346
:101180006F00F4CF909170009D7F9093700091E07C
:101190009093B0009091B100987F94609093B100CB
:1011A0001092B300E3CFCF93DF9390E0FC01EF58B0
:1011B000F54F2491835A954FFC0184918823C9F0FF
:1011C00090E0880F991FFC01E357FA4FA591B49165
:1011D000FC01ED5AF54FC591D49161110DC09FB737
:1011E000F8948C91209582238C93888128232883DE
:1011F0009FBFDF91CF910895623051F49FB7F8946B
:101200003C91822F809583238C93E8812E2BEFCF06
:101210008FB7F894EC912E2B2C938FBFEACF0F93BE
:101220001F93CF93DF930DEF16E061E0F80181810A
:101230000E94D308C3ECD0E0CE010197F1F760E043
:10124000F80180810E94D308CE010197F1F760E098
:10125000F80181810E94D3082197F1F7DF91CF91A6
:101260001F910F910895EF92FF920F931F93CF93C9
:10127000DF93082F18E0C3ECD0E061E08091FD0619
:101280000E94D308CE010197F1F7E02EF12C60E027
:1012900000FF61E08091FE060E94D308CE01019715
:1012A000F1F760E08091FD060E94D308CE0101971E
:1012B000F1F7F594E7940E2D1150F9F661E0809165
:1012C000FD060E94D30860E08091FE060E94D308CC
:1012D000CE010197F1F760E08091FD060E94D308EE
:1012E0002197F1F78091FE060E945008182F811176
:1012F00005C061E08091FE060E94D308C3ECD0E0F7
:10130000CE010197F1F761E08091FD060E94D308BC
:101310002197F1F781E0111101C080E0DF91CF91B9
:101320001F910F91FF90EF90089561E08091FE066C
:101330000E94D30883EC90E00197F1F708950F9392
:101340001F93CF93DF938C010E94950980E40E9444
:1013500033090E940F090E94950980EC0E9433090D
:10136000E8010C5F1F4F89910E943309C017D10714
:10137000D1F70E940F090E9495098091FF068F7096
:1013800080580E943309DF91CF911F910F910C94E7
:101390000F091F93CF93DF93182FEB0161E00E9499
:1013A000D308209739F460E0812FDF91CF911F910E
:1013B0000C947908CF3FD10511F461E0F5CFE12F0E
:1013C000F0E0E858FA4FE491E33031F140F4E130D5
:1013D000B1F0E230E1F0C038D1057CF7E4CFE7307E
:1013E00029F1E83059F1E430B1F780918000806252
:1013F00080938000D0938B00C0938A0004C084B592
:10140000806884BDC7BDDF91CF911F91089584B5D9
:10141000806284BDC8BDF7CF8091800080688093D2
:101420008000D0938900C0938800EDCF8091B000F8
:1014300080688093B000C093B300E5CF8091B00086
:1014400080628093B000C093B400DDCF3FB7F894C2
:101450008091690390916A03A0916B03B0916C0332
:1014600026B5A89B05C02F3F19F00196A11DB11DFF
:101470003FBFBA2FA92F982F8827BC01CD01620F3B
:10148000711D811D911D42E0660F771F881F991FF6
:101490004A95D1F708958F929F92AF92BF92CF92C3
:1014A000DF92EF92FF926B017C010E94260A4B01B2
:1014B0005C01C114D104E104F104B9F00E94260AD0
:1014C000681979098A099B09683E7340810591056D
:1014D00080F321E0C21AD108E108F10888EE880EF5
:1014E00083E0981EA11CB11CE4CFFF90EF90DF9029
:1014F000CF90BF90AF909F908F9008952FB7F894A2
:101500006091650370916603809167039091680311
:101510002FBF0895CF92DF92EF92FF920F931F9308
:10152000CF93DF93CDB7DEB7C054D1400FB6F89458
:10153000DEBF0FBECDBF0E947E0A0091CB06109188
:10154000CC062091CD063091CE066B017C01C01AED
:10155000D10AE20AF30A97018601003D17402105EE
:10156000310590F48091D306C05CDE4F0FB6F8943D
:10157000DEBF0FBECDBFDF91CF911F910F91FF90C6
:10158000EF90DF90CF9008956093CB067093CC06D8
:101590008093CD069093CE061092C6061092C50693
:1015A0001092C4061092C3061092C20662E08091A7
:1015B000C7060E94D30861E070E080E090E00E94DE
:1015C0004B0A61E08091C7060E94D30860E08091D9
:1015D000C7060E9479088091C8068551823020F59F
:1015E0008BE291E10197F1F762E08091C7060E94DA
:1015F000D3088091D40690E08230910538F0880FAE
:10160000991F880F991F05970197F1F7F89480E0CB
:101610000E944E066F3F7F4F8F4F9F4F61F4109295
:10162000D306789480E0A0CF64E170E080E090E0A1
:101630000E944B0AD9CF81E00E944E066F3F7F4F38
:101640008F4F9F4F61F38E010F5F1F4F6E012FEB86
:10165000C21A2EEFD20A780180E00E944E06F701EE
:10166000608371838283938381E00E944E06F70139
:101670006483758386839783F8E0EF0EF11CEC1486
:10168000FD0451F7789430E020E0F801C080D1806B
:10169000E280F3804481558166817781FFEFCF1628
:1016A000DF06EF06FF0631F04F3F8FEF5807680760
:1016B000780719F41092D306B5CFF90183E0F595B8
:1016C000E7958A95E1F7EE53F94F8081880FC416AC
:1016D000D506E606F70610F180832F5F3F4F085FBF
:1016E0001F4F2832310589F64091C6062091C20667
:1016F0008091C306280F3327331F8091C406280F1B
:10170000311D8091C506820F932F911D992748178F
:10171000190681F681E08093D30626CF8160DCCF65
:10172000EF92FF920F931F93CF93DF93EC01EC8026
:10173000FD806E157F050CF070C057FF04C0240FAC
:10174000351F50E040E08E819F81FA01E20FF31FC8
:101750008E179F071CF49C01241B350B12161306D1
:101760000CF05BC0922F842F8695869586958E9D72
:10177000D0018F9DB00D11246A0F7B1FAF8DB8A1D2
:10178000A60FB71F477049F188E0841B482F682FC8
:1017900070E0FB01E059FA4FE491281708F063C0AC
:1017A000621B71092FEF30E002C0359527956A95CD
:1017B000E2F7E2230130110539F0B0F102301105F2
:1017C00061F58C91E82702C08C91E82BEC9394177B
:1017D00020F12C813D81A20FB31FE92FE41BE830DB
:1017E00078F00230110521F58E2F9C9190959C93F5
:1017F0002C813D81A20FB31F88508830B0F7E7706D
:10180000EE2359F0F0E0E859FA4FE4910130110568
:10181000F9F010F10230110519F1DF91CF911F910C
:101820000F91FF90EF900895E0958C91E823CECF33
:1018300081E00115110509F480E081959E2F8C93BC
:101840002C813D81A20FB31F98509830C0F7D7CF9D
:101850008C91E82BEC93E1CFE0958C91E823FACFC3
:101860008C91E827F7CF0130110509F4ADCFE0F2F4
:101870000230110509F4A5CFAE0DBF1DAECF0F93F9
:101880001F93CF93DF9377FF04C0260F371F70E0BD
:1018900060E0DC011496CD91DC91FB01E20FF31FB7
:1018A000CE17DF071CF49E01261B370B12161306FA
:1018B0004CF5FA0157FD3796A3E0F595E795AA9503
:1018C000E1F7EC9FD001ED9FB00DFC9FB00D11240E
:1018D0006A0F7B1FDC015F96ED91FC91E60FF71F0D
:1018E0004770552781E090E001C0880F4A95EAF7DC
:1018F000482F0130110559F0A8F02E0F3F1F02307C
:101900001105E1F0DF91CF911F910F9108952E0FF6
:101910003F1FE217F307B1F38191DF011197842B89
:101920008C93F7CF80952E0F3F1FE217F30751F3EB
:101930009191DF01119798239C93F7CFE217F3075A
:1019400009F38191DF01119784278C93F7CF0F93CF
:101950001F93FA01DC0156964C9156974230E9F0FC
:101960004330A1F1413061F514964D915C91DA015B
:10197000AE1BBF0BFD01E21BF30B77FD0BC0DC01BF
:1019800016964D915C916417750724F4AB01BF0165
:101990000E943F0C1F910F91089514964D915C91F8
:1019A000DA01A61BB70BBD0161507109DC01169667
:1019B0004D915C91DA01AE1BBF0BFD01E21BF30BF5
:1019C00077FDE8CFAF010E94900BE4CF16964D91C2
:1019D0005C91DA01A61BB70BBD0161507109CDCF37
:1019E0000F931F93FA01DC0156964C9156974230A3
:1019F000A9F0433091F1413019F514964D915C9165
:101A0000DA01AE1BBF0BFD013197F7FD04C0AB013E
:101A1000BF010E94900B1F910F91089514964D9154
:101A20005C91DA01A61BB70BBD01DC0116964D9146
:101A30005C91DA01AE1BBF0BFD013197621B730B8A
:101A4000F7FDE9CFDC0116964D915C91E417F5079F
:101A500014F7AF010E943F0CDECF16964D915C91BA
:101A6000DA01A61BB70BBD01621B730BCECFFC01C5
:101A700077FD64C080859185681779070CF05EC09A
:101A800057FD5CC082859385481759070CF056C0F6
:101A900086898230B1F0833029F1813041F484812C
:101AA0009581841B950BAB01BC01615071092130FC
:101AB000310509F108F443C02230310509F463C04F
:101AC000089584819581DC01A61BB70BBD0161508F
:101AD000710986819781DC01A41BB50BAD014150D2
:101AE0005109E5CF86819781861B970BBA01AC011E
:101AF00041505109DCCFCA0157FD0796A3E09595E7
:101B00008795AA95E1F7A481B5818A9F90018B9F63
:101B1000300D9A9F300D1124620F731F078CF0A1B6
:101B2000E02DE60FF71F4770552721E030E001C098
:101B3000220F4A95EAF78081822B80830895CA019B
:101B400057FD079633E0959587953A95E1F7A4817F
:101B5000B5818A9F90018B9F300D9A9F300D112483
:101B6000620F731F078CF0A1E02DE60FF71F47707F
:101B7000552781E090E001C0880F4A95EAF78095EB
:101B800090818923DACFCA0157FD079623E0959506
:101B900087952A95E1F7A481B5818A9F90018B9F53
:101BA000300D9A9F300D1124620F731F078CF0A126
:101BB000E02DE60FF71F4770552721E030E001C008
:101BC000220F4A95EAF780818227B7CF0895FC015A
:101BD0006370668B8481958126813781613039F00D
:101BE000633029F091878087338722870895318772
:101BF00020879387828708952F923F924F925F921A
:101C00006F927F928F929F92AF92BF92CF92DF920C
:101C1000EF92FF920F931F93CF93DF93CDB7DEB771
:101C20006A970FB6F894DEBF0FBECDBF9A8F898F2B
:101C30007A8369834A01D22E18870F833701BC2C1F
:101C4000DC0159962D913C915A972115310509F0E7
:101C500015C118968D919C911997681779070CF00A
:101C6000D7C11A968D919C91481759070CF0D0C195
:101C70004C2C512CB6E0CB9E600D711D11247C873D
:101C80006B87161617060CF0C3C1EA2DF0E0FA8731
:101C9000E98793E0EE0FFF1F9A95E1F7F88BEF8746
:101CA000CF01840F951F181619060CF0B1C1A98D2C
:101CB000BA8D58968C91811104C0BFEABD1508F405
:101CC000D394A98DBA8DED91FC9111970284F3857F
:101CD000E02DCD010995B5E0DB9EC0011124E9811D
:101CE000FA81FC83EB83312C212C9C0128593F4F36
:101CF000388F2F8B4A2D50E05E8B4D8BEF89F88DFE
:101D0000E20DF31D44919E828D82D12CC12C6981FC
:101D10007A81620D731D7A8B698B842F90E09C8B86
:101D20008B8BE98DFA8DA081B18140FF82C0F1E0FB
:101D3000BF126FC0AF126DC01C96ED91FC912F8148
:101D40003885A4014C0D5D1D69897A89898D9A8D2C
:101D50000995EB89FC89F595E7954E2F5FEFC51A3C
:101D6000D50A6D817E818D899E89680F791F7E835A
:101D70006D8398E0C916D10481F6AFEF2A1A3A0AAA
:101D8000EB81FC81E40DF51DFC83EB83F5E02F1660
:101D9000310409F0B3CF2F81388526153705B9F006
:101DA000A98DBA8DED91FC91B1E0BB1257C0AB1279
:101DB00055C069817A816B5F7F4F0088F189E02D82
:101DC000830128E030E0A401898D9A8D0995A98DC1
:101DD000BA8DED91FC9111970688F789E02DCD0120
:101DE0006A960FB6F894DEBF0FBECDBFDF91CF91DC
:101DF0001F910F91FF90EF90DF90CF90BF90AF9029
:101E00009F908F907F906F905F904F903F902F901A
:101E100009941E96ED91FC91EF80F88409851A854E
:101E200092014D815E816B817C81898D9A8D0995AE
:101E300090CF2F8138852615370509F48ACF31E0F8
:101E4000B31207C0A31205C01C96ED91FC9193013B
:101E500078CF1E96ED91FC917301E0CF6B857C8568
:101E6000641975090684F785E02D73010F851889BB
:101E70009201A401898D9A8D0995A9CFF901349613
:101E80009491329745915491D91AB7E0DB9E400D59
:101E9000511D1124F901259134913C8B2B8BFA01B2
:101EA00025903490FA013296749031963491398BA2
:101EB000329664903196449041E04C1518F04A15E2
:101EC00008F07FC0662D062C000C770B7C836B839B
:101ED000842D042C000C990B9E838D83A98DBA8DC3
:101EE000ED91FC9111970284F385E02DCD010995C8
:101EF000512CD12CC12CEA2DF0E0FA87E9872B2D4B
:101F000030E03C872B87A401440D511D47FC5A95B6
:101F1000588F4F8B69817A81660D711D67FC7A95A8
:101F20007E876D877989C71608F051CF2C2D30E058
:101F30004D815E81420F531FA985BA854A9FC0011A
:101F40004B9F900D5A9F900D1124FC01E80DF91D37
:101F5000F88BEF87852D612C4F89588D420F531FC9
:101F60005E8B4D8B671408F050C044244394480E98
:101F7000877041F4C1010196EB89FC89E20DF31DE4
:101F8000D4901C01D7FE19C0A98DBA8DED91FC919A
:101F9000662D70E0B1E0BB1219C0AB1217C02D85E1
:101FA0003E85620F731F0484F585E02D2F813885EF
:101FB0004D895E89898D9A8D0995DD0C6394842DF8
:101FC000D1CF1E821D821C821B8288CF4B815C81F7
:101FD000640F751FAB85BC856A9FC0016B9F900D18
:101FE0007A9F900D112469817A81680F791F068488
:101FF000F785E02DEF80F88409851A859D014F85CE
:102000005889898D9A8D0995D8CF570CC3948ACF5A
:102010006A960FB6F894DEBF0FBECDBFDF91CF91A9
:102020001F910F91FF90EF90DF90CF90BF90AF90F6
:102030009F908F907F906F905F904F903F902F90E8
:1020400008958F929F92AF92CF92EF92FF920F934B
:102050001F93CF93DF93EC01262F898D9A8D0097E4
:1020600009F051C06A30D1F41D861C868D8948E084
:10207000849F900111248E859F85820F931F9F87D7
:102080008E8781E090E0DF91CF911F910F91FF90BB
:10209000EF90CF90AF909F908F9008956D3089F31F
:1020A000CC88AD888F898823C1F08C859D8536E0EA
:1020B000C39E800D911D11244885598548175907E5
:1020C00064F44E855F851D861C8638E0A39EC001A2
:1020D0001124840F951F9F878E87EA88FB880889C3
:1020E00019894E855F856C857D85CE010E94FC0D2A
:1020F0002C898C859D8546E0249F800D911D11249F
:102100009D878C87BECF6A3069F41D861C86FC01D2
:102110003896E4912D898E859F85E29F800D911DD3
:102120001124ADCF6D3009F4ACCFFC01349634915D
:10213000631708F4A6CF3296E491E61708F4A1CF0E
:10214000FC01329685909490462F431B342F47E034
:10215000349F800C911C1124F401329634913196F5
:10216000E4913323A9F1EE2399F1CC88F40135965B
:10217000E491AD884F89442301F10E2E000CFF0B32
:10218000E30FF11DCE9EA001CF9E500D11246C8552
:102190007D85460F571F68857985641775076CF430
:1021A0004E855F851D861C86FC013896E491AE9EA7
:1021B000400D511D11245F874E87EA88FB880889EE
:1021C00019894E855F856C857D85CE010E94FC0D49
:1021D000F4013496E4912C898C859D85E29F800DD5
:1021E000911D11248DCF6F927F928F929F92AF920B
:1021F000BF92CF92DF92EF92FF920F931F93CF93F4
:10220000DF93EC016B015A0139014801E881F98142
:102210000284F385E02D0995E881F9810288F3892C
:10222000E02D87019301A501B601CE010995A50115
:10223000480D591D41505109E881F9810288F389FF
:10224000E02D9301B601CE010995E881F98100885E
:10225000F189E02D9401A501B601CE010995C60CC6
:10226000D71CB60161507109E881F9810088F189B4
:10227000E02D9401A501CE010995E881F981068838
:10228000F789E02DCE01DF91CF911F910F91FF9043
:10229000EF90DF90CF90BF90AF909F908F907F9006
:1022A0006F9009946F927F928F929F92AF92BF929C
:1022B000CF92DF92EF92FF920F931F93CF93DF9312
:1022C0005C01EB016A01490138018701DC01ED91F4
:1022D000FC916217730719F5641675062CF0962D9C
:1022E000872D3A01C92ED82E9601261937092F5F5E
:1022F0003F4F048CF58DE02DA301BE01C50109956A
:10230000DF91CF911F910F91FF90EF90DF90CF90D1
:10231000BF90AF909F908F907F906F9008954615DB
:10232000570591F42617370724F0892D4B01C22F4A
:10233000D82F9E01281939092F5F3F4F068CF78D42
:10234000E02DA601B401DACF0284F385E02D0995D2
:10235000D501ED91FC910488F589E02D830194016C
:10236000A601BE01C5010995D501ED91FC91068834
:10237000F789E02DC501DF91CF911F910F91FF905B
:10238000EF90DF90CF90BF90AF909F908F907F9015
:102390006F900994EF92FF920F931F93DC011A96AE
:1023A0000D911C911B9718962D913C911997ED91C9
:1023B000FC9100A0F1A1E02D7B0150E040E070E035
:1023C00060E009951F910F91FF90EF9008954F9253
:1023D0005F926F927F928F929F92AF92BF92CF92B5
:1023E000DF92EF92FF920F931F93CF93DF936C01D5
:1023F0002B015A0139014801DC01ED91FC91028465
:10240000F385E02D0995E201640C751CD601ED9170
:10241000FC91C615D7055CF40088F189E02D870191
:102420009401A501BE01C60109952196EFCF06884A
:10243000F789E02DC601DF91CF911F910F91FF9099
:10244000EF90DF90CF90BF90AF909F908F907F9054
:102450006F905F904F9009948F929F92AF92BF922E
:10246000CF92DF92EF92FF920F931F93CF93DF9360
:10247000EC015B014A016901E881F9810284F3857D
:10248000E02D099595012C0D3D1D21503109E88164
:10249000F9810488F589E02D78018401A401B50152
:1024A000CE010995E881F9810688F789E02DCE01F2
:1024B000DF91CF911F910F91FF90EF90DF90CF9020
:1024C000BF90AF909F908F9009948F929F92AF9200
:1024D000BF92CF92DF92EF92FF920F931F93CF9311
:1024E000DF93EC015B014A0169017801E881F98120
:1024F0000284F385E02D0995C80CD91C8601015092
:102500001109E881F9810488F589E02D9501A4017C
:10251000B501CE010995E881F9810688F789E02D9A
:10252000CE01DF91CF911F910F91FF90EF90DF903F
:10253000CF90BF90AF909F908F900994EF92FF92B1
:102540000F931F93DC01ED91FC9100A0F1A1E02D10
:1025500009951F910F91FF90EF9008950F931F938E
:10256000DC01ED91FC91068CF78DE02D09951F9112
:102570000F9108950F931F93DC01ED91FC91048C52
:10258000F58DE02D09951F910F910895DC01ED91D6
:10259000FC910084F185E02D09943F924F925F9267
:1025A0006F927F928F929F92AF92BF92CF92DF9263
:1025B000EF92FF920F931F93CF93DF935C017B0108
:1025C0004A016901390187E0680E711C93E0759436
:1025D00067949A95E1F72B01400E511E10E000E040
:1025E000312CD0E0C0E0CE0187709927330C892BC5
:1025F00059F4FE0183E0F595E7958A95E1F7E00F40
:10260000F11FE80DF91D349037FE0AC021E030E0DB
:10261000A701B5016C0F7D1F8EEC95E00E94C612DC
:102620002196CC16DD06F9F68FEFE81AF80A060DAA
:10263000171DE414F504A9F6DF91CF911F910F91B6
:10264000FF90EF90DF90CF90BF90AF909F908F90D2
:102650007F906F905F904F903F9008952F923F92A0
:102660004F925F926F927F928F929F92AF92BF92A2
:10267000CF92DF92EF92FF920F931F93CF93DF934E
:1026800000D000D000D0CDB7DEB73C016A013E8358
:102690002D83FC82EB825801A41AB50AB7FE03C051
:1026A000B194A194B1088D809E80861A970A97FEF6
:1026B00003C09194819491088A149B045CF0902F3C
:1026C000812F0D811E819D838E839C2D8D2D6B010D
:1026D000692F782F0C151D055CF09D818E817E83FE
:1026E0006D83692F782F902F812F8601C92ED82EC8
:1026F0001601201A310A2B012D813E81421A530AFC
:1027000057FE03C0519441945108710137FE03C034
:102710003FEFE31AF30AF594E7948D819E818617C3
:1027200097075CF5A1E0B0E0BA83A983C016D10693
:102730004CF1D301ED91FC910484F585E02D2B81C2
:102740003C81A8016D817E818A149B041CF04D811F
:102750005E81B801C3010995E418F508F7FE0AC0C7
:102760002D813E8189819A81280F391F3E832D83D7
:10277000E20CF31C0F5F1F4FD9CF2FEF3FEF3A83CF
:102780002983D4CF26960FB6F894DEBF0FBECDBFF7
:10279000DF91CF911F910F91FF90EF90DF90CF903D
:1027A000BF90AF909F908F907F906F905F904F9071
:1027B0003F902F900895DC011A96ED91FC9130E046
:1027C00020E00994DC011696ED91FC9130E020E0C8
:1027D00040E069E10994DC011696ED91FC9130E04E
:1027E00020E040E068E109949A01DC011696ED9141
:1027F000FC91462F67E10994EF92FF920F931F938C
:10280000CF93DF931F92CDB7DEB77C018B01D80148
:102810006C91673129F150F46531A0F40F90DF918C
:10282000CF911F910F91FF90EF9008956A3118F1A9
:102830006E3FA1F7F8014181498369E2C7010E9417
:10284000DB130BC0F80141814983D7011696ED9146
:10285000FC9130E020E0C70109950E5F1F4FD7CFF4
:10286000F80181818983AE014F5F5F4F61E0C7014D
:102870000E94F413F2CF0F5F1F4FD7011696ED9110
:10288000FC9130E020E040E0C7010995C0CF462F21
:10289000DC011696ED91FC9130E020E066E10994B0
:1028A000462FDC011696ED91FC9130E020E065E1C9
:1028B0000994EF92FF920F931F93CF93DF93EC0154
:1028C000042F79016D3009F446C050F46B30C9F122
:1028D000693009F49FC06A3009F465C080E046C0E1
:1028E0006E3009F452C06F3099F70E94EB13F70174
:1028F0001381110F110F110F6C89160F60E4CE01B7
:102900000E945014612F62956F706061CE010E9429
:102910005014612F6F70CE010E944714F70164813B
:10292000606BCE010E944714F701408151816281A2
:10293000660F660F660FCE010E94F4130150A1F7D7
:102940002EC06EE271E0442311F069E271E0CE0125
:102950000E94FC130AC0411110C062E271E00E94A3
:10296000FC13E881F98182898C8B81E0DF91CF9122
:102970001F910F91FF90EF9008956BE171E00E941D
:10298000FC13E881F9818389EFCF0E94EB1361E8A2
:10299000CE010E945014602FCE010E944714CE0138
:1029A0000E94E213E2CFEA85FB8530E020E040E0C0
:1029B00068E2CE010995EE81FF8130E020E040E041
:1029C00064E1CE01099541E06BE4CE010E94DB1386
:1029D000E881F981448169E2CE010E94DB1340E085
:1029E0006BE4CE010E94DB13E881F981448169E246
:1029F000CE010E94DB1341E06BE4CE010E94DB13A9
:102A0000E881F981458169E2CE010E94DB1363E32D
:102A100071E09DCF88E691E0998388831C8AA5CFD9
:102A200041E06DE40C94DB13DC01ED91FC914585F4
:102A30006DE20C94DB13CF93DF93EC0141E06CE487
:102A40000E94DB13CE01DF91CF910C941415CF932C
:102A5000DF93EC01662379F00E941015CE010E94ED
:102A60001415CE010E941B1540E06CE4CE01DF91ED
:102A7000CF910C94DB1340E06DE40E94DB13EECFAA
:102A80001F93CF93DF93EC01162F60780E942715D8
:102A9000612F6074CE010E942715612F6072CE01F4
:102AA0000E942715612F6071CE010E942715612FAA
:102AB0006870CE010E942715612F6470CE010E94BC
:102AC0002715612F6270CE010E942715612F61705A
:102AD000CE010E942715CE010E941015CE010E9442
:102AE0001415CE010E941B15CE010E941015CE01B7
:102AF0000E94141540E06CE4CE01DF91CF911F914C
:102B00000C94DB13DC011896ED91FC9130E020E091
:102B100040E069E10994DC011896ED91FC9130E008
:102B200020E040E068E10994CF93DF931F92CDB796
:102B3000DEB76983BE016F5F7F4F0E9410070F9061
:102B4000DF91CF910895EF92FF921F93CF93DF9380
:102B5000EC01162F7A010E948B1560E4CE010E94D1
:102B60009415E885F9859701412F67E1CE01099514
:102B7000CE01DF91CF911F91FF90EF900C948215C1
:102B8000EF92FF921F93CF93DF93EC01142F790103
:102B9000663181F138F4643109F44BC0653179F064
:102BA00080E022C06831C9F150F16931C9F78091E4
:102BB0006303882391F1CE010E9482152EC080917B
:102BC0006303882319F0CE010E948215CE010E9472
:102BD0008B1560E0CE010E949415612FCE010E94FA
:102BE000941581E080936303DF91CF911F91FF9053
:102BF000EF900895642F0E94941581E0F5CF8091A5
:102C00006303882319F0CE010E948215A7011931B0
:102C100038F4612FCE010E94A31510926303EDCF0B
:102C200068E1CE010E94A315185188E1E80EF11C5D
:102C3000EDCF8E898F3F11F488E78E8BE885F9857B
:102C40009701412F64E1CE01DF91CF911F91FF9059
:102C5000EF9009940F93DC01DE963C91DE97431BC5
:102C6000D496ED91FC9109950F910895CF93DF9340
:102C7000FC01A081B18182AD982F990F990F990F16
:102C800095AF50969C915097903208F09FE1990F24
:102C9000990F990F94AF23AD922F990F990F990F18
:102CA00096AF51963C915197682F620F7727771F07
:102CB0003617170614F4832F821B97AFEF01C05C01
:102CC000DF4F880F880F880F890F8883219680EF48
:102CD000888354968D919C915597813F910508F476
:102CE0008883EE5BFF4F56968C918083DF91CF9166
:102CF00008950F93FC01EB5BFF4F308131965081BB
:102D0000451730F4301738F0041728F080E013C06E
:102D10003017D0F3FBCFFC01ED5BFF4F30818C5BB4
:102D20009F4FFC018081681740F481E0321718F052
:102D300081E0261758F70F9108953217C8F3E6CFB0
:102D40002F923F924F925F926F927F928F929F92BB
:102D5000AF92BF92CF92DF92EF92FF920F931F93A9
:102D6000CF93DF93EC014C0183E4880E911CF401B6
:102D70001082329720805E01F4E4AF0EB11CF501A1
:102D800020823FAC6E01F5E4CF0ED11CF6013082FB
:102D9000359740807E01F6E4EF0EF11CF70140828A
:102DA00034961081329760803196708032975080CF
:102DB000012F262D472D652DCE010E947916CD5865
:102DC000DF4F811114C01882DF91CF911F910F91B5
:102DD000FF90EF90DF90CF90BF90AF909F908F903B
:102DE0007F906F905F904F903F902F90089581E07B
:102DF0008883552011F0F4015082621410F4F5011B
:102E00006082371410F4F60170821415E8F6F701A9
:102E10001083DACF0F93DC01802FFD01ED58FF4FB7
:102E200090819923E9F12223D9F1223020F0023058
:102E300079F56F5F621B082F0170FD0180FD32C0C4
:102E4000EB5BFF4F8081481758F13196808148171E
:102E500038F53297908131978081260F2617F0F44C
:102E60006917D8F42FEF290F8217D0F4681708F4E8
:102E7000682F291708F4922F961BD696ED91FC9196
:102E8000D7970480F581E02D292FCD01099508C041
:102E9000033089F64F5F421BCECF682F691720F3AE
:102EA0000F910895ED5BFF4F80816817C8F331964D
:102EB00080816817A8F73296908131978081240F1E
:102EC000241778F4491760F42FEF290F821740F781
:102ED000481708F4482F291708F4922F941BCDCFD8
:102EE000482F4917E8F6F2CF213039F020F0223090
:102EF00031F0840F0895860F0895841B0895861B72
:102F00000895213039F020F0223031F0861B0895E9
:102F1000840F0895860F0895841B08955F926F9221
:102F20007F928F929F92AF92BF92CF92DF92EF9259
:102F3000FF920F931F93CF93DF935C01162F642EA4
:102F4000EC01C15BDF4FDC80ED804C0189E7880E2E
:102F5000911CFE80FD18C12EF11608F4CF2C5B8069
:102F60000C85202F4E2D6D2D8A810E947417782E8E
:102F7000202F4E2D6D2D852D0E948117482F662004
:102F800071F08A85F40180832C2D672DC5010E9484
:102F90000A171F1548F01F19E394D12CDACF898541
:102FA0008111F7CF8B85EECF1D0D1C83ED82DF9154
:102FB000CF911F910F91FF90EF90DF90CF90BF9036
:102FC000AF909F908F907F906F905F900895DC01FD
:102FD00018964C911897ED91FC911197249130E03F
:102FE000042E02C0359527950A94E2F7842F860FA8
:102FF000883068F031961196FC93EE93E49198E056
:10300000941B01C0EE0F9A95EAF72E2B8850189664
:103010008C938FEF9FEF01C0880F6A95EAF7809538
:1030200082230895FC01E60FF11D849190E0982F12
:1030300088273196E4918E0F911D0895EF92FF92AB
:103040001F93CF93DF93EC01142F7901683151F175
:1030500030F46431D1F06731A9F080E006C0693105
:1030600009F443C06032C9F781E0DF91CF911F912D
:10307000FF90EF900895F70161917F01CE010E94CA
:10308000401511501111F7CFEFCF41E06CE40E94D1
:10309000DB1341E06DE4CE010E94DB13CE010E9400
:1030A0001415E2CF8F89882349F0CE010E941015B4
:1030B000CE010E941415CE010E941B15CE010E9464
:1030C000101540E06DE4CE010E94DB13CE010E949A
:1030D000141540E06CE4CE010E94DB1381E08F8B7D
:1030E0006E89CE010E944015BFCF40E06DE40E9482
:1030F000DB13CE010E941415CE010E941B15CE01D8
:103100000E941015CE010E9414151F8AADCF0F9397
:103110001F93CF93DF938C01C62F642FCC32E8F43A
:10312000CA3208F041C0C83271F1C93209F442C054
:1031300080E0C034D0F1CF73F801EC0FF11D868D23
:103140008F3F91F1C031E0F00E94500821E0892BBF
:1031500009F420E0F801218F27C0CD3289F140F336
:1031600084EB8C0F823020F7CF73C00FD12FD11D8D
:103170008E8D411133C061E00E94D30860E08E8DD6
:103180000E94790811C0025E1F4FD0E0F8018191C2
:103190008F018F3F31F061E0D03108F062E00E9492
:1031A000D308DF5FD63191F781E0DF91CF911F9196
:1031B0000F91089570E090E080E00E944B0AF4CFF8
:1031C00085E090E0433010F082E090E0880F991F96
:1031D000880F991F05970197F1F7E6CF62E00E94EB
:1031E000D308E2CF08958CBD9DBD08952091FE03C4
:1031F0003091FF032817390771F49091FC038091F7
:10320000FD03981741F0E091FC03F0E0ED5DFC4F09
:10321000808190E008958FEF9FEF0895EF92FF92E5
:103220000F931F93CF93DF93DC015C96ED90FC909E
:103230005D97E114F10479F481E090E013969C939A
:103240008E93129790E080E0DF91CF911F910F91C4
:10325000FF90EF9008955196ED91FC915297509602
:103260008C915097982F90950FB75E962C915E9702
:10327000122F127021FD6095F8942081112319F10D
:10328000282B2083E7012197F1F728E0462F50E013
:10329000308160FF1AC0382B3083E7012197F1F7A6
:1032A000BA0175956795215089F7112381F08081C6
:1032B000892380830FBF5C968D919C910197F1F7D4
:1032C00081E090E0C1CF2923DCCF3923E5CF908185
:1032D000892BEFCF2091FE033091FF032817390788
:1032E00071F48091FD032091FC0390E0805C9F4F7E
:1032F000821B910960E470E00E948C3A089590E08E
:1033000080E008952091FE033091FF0328173907CC
:10331000B9F49091FC038091FD03981789F0E09136
:10332000FC03F0E0ED5DFC4F80812091FC0330E078
:103330002F5F3F4F2F7333272093FC0390E00895B6
:103340008FEF9FEF0895E091FE03F091FF03E817E0
:10335000F90769F4A389B4899C91858980958923AB
:103360008C931092FF031092FE0381E0089580E099
:1033700008951092BE061092BD061092BC061092DF
:10338000BB061092BA061092B9068DE991E09093AF
:10339000C0068093BF069091AF06963108F046C0F4
:1033A0002DEB30E03093BA062093B9062BE931E0DB
:1033B0003093BC062093BB062CE231E03093BE066E
:1033C0002093BD062091680084E0983048F031E0F9
:1033D0009E3008F430E081E001C0880F3A95EAF7AA
:1033E000822B809368002DE630E0983050F02BE679
:1033F00030E09E3030F02CE630E0963110F030E0D6
:1034000020E03093B7062093B606292F30E098309D
:10341000C0F581E001C0880F9A95EAF78093B8065D
:103420008091BF069091C0060197F1F78091BD068B
:103430009091BE06892B21F18091FE039091FF03AC
:1034400026E0833A9207E1F0009711F00E94A31959
:103450008091C1068E7F8093C1061092FD03109269
:10346000FC0383EA96E09093FF038093FE03E091D0
:10347000B606F091B70680819091B806892B8083BB
:1034800008959E3040F42850310981E001C0880F32
:103490002A95EAF7C3CF2E503109F7CF2091D902F0
:1034A000260F3327331F21323105ECF42091FD0222
:1034B000FC0190E080E0243069F082E00895A09162
:1034C000D9022191AC0147545D4FA40FB52FB11D16
:1034D0002C930196861798F38091D902680F609318
:1034E000D90280E0089581E008951092FD0281E004
:1034F0008093FF021092FE0261E082E10E9479084F
:1035000061E083E10E947908E9EBF0E080818E7F41
:10351000808380818D7F808388E48093B80085E4F8
:103520008093BC000895CF93DF9391E09093B8020D
:103530008823B9F0C091B800D091BA008091BC0046
:103540008A7B8093BC0060E082E10E94790860E0A1
:1035500083E10E9479080E94751AD093BA00C09343
:10356000B800DF91CF910895E09196038091950383
:10357000E81730F4F0E0ED56FD4F808190E00895BB
:103580008FEF9FEF089590919603809195032FEF11
:103590003FEF981748F4E92FF0E0ED56FD4F2081FA
:1035A00030E09F5F90939603C90108958091950341
:1035B00090919603891B990B0895CF92DF92EF9219
:1035C000FF920F931F93CF93DF937C01CB018A016E
:1035D0002091FB03222389F0EB016B01C40ED51E61
:1035E000CC15DD0569F06991D701ED91FC91019051
:1035F000F081E02DC7010995F3CF642F0E944E1A88
:10360000C801DF91CF911F910F91FF90EF90DF9054
:10361000CF900895CF93DF931F92CDB7DEB7698324
:103620002091FB032223F9F02091F803203258F077
:1036300021E030E0FC013383228390E080E00F90B2
:10364000DF91CF9108958091F903E82FF0E0ED58D4
:10365000FD4F998190838F5F8093F9038093F803E6
:1036600081E090E0ECCF61E0CE0101960E944E1A1D
:10367000F7CFCF92DF92EF92FF920F931F93CF93EA
:10368000DF93D091F80381E0D13208F09CC0C09163
:10369000FA030E94260A6B017C018091FD028111D0
:1036A0006CC082E08093FD0281E08093FF028FEF87
:1036B0008093FC0210922103D0932003A3E7B2E091
:1036C000E0E0F3E080E0D8138DC0109222038091F7
:1036D0002203CC0FC82BC09322038091FE028130BD
:1036E00009F084C01092FE020E94260A6B017C0140
:1036F000809122038093BB008091B4029091B50227
:10370000A091B602B091B702892B8A2B8B2BA1F026
:103710000E94260A0091B4021091B5022091B602CF
:103720003091B7026C197D098E099F09061717079A
:103730002807390708F442C08091BC0083FDD8CF28
:1037400085EC8093BC000E94260A6B017C0180916D
:10375000FD02823009F44CC08091FC028F3F09F4D5
:1037600069C08091FC02803209F466C08091FC023D
:10377000803309F463C084E026C08091B402909144
:10378000B502A091B602B091B702892B8A2B8B2B80
:1037900009F483CF0E94260A0091B4021091B50269
:1037A0002091B6023091B7026C197D098E099F09EC
:1037B000061717072807390708F06FCF8091B30263
:1037C0000E94931A85E01092F9031092F803109268
:1037D000FB03DF91CF911F910F91FF90EF90DF904E
:1037E000CF9008959D9191938F5F6DCF85EEA9CF76
:1037F0008091B4029091B502A091B602B091B70247
:10380000892B8A2B8B2B09F4A2CF0E94260A0091C8
:10381000B4021091B5022091B6023091B7026C1932
:103820007D098E099F09061717072807390708F031
:103830008ECFC4CF80E0C7CF82E0C5CF83E0C3CFB7
:10384000EF92FF920F931F93CF93DF937C01C62FCC
:103850008091EB059091EC05009709F459C02091F7
:10386000EF0531E03093FB032093FA031092F90344
:103870001092F803DC01ED91FC910190F081E02DB4
:1038800060E009958701EE24E394F12CD1E0C1506A
:103890008091EB059091EC05CF3F91F1B0E2EB16F2
:1038A000F104D8F00E94391B8091EB059091EC0552
:1038B0002091EF05D093FB032093FA031092F903B4
:1038C0001092F803DC01ED91FC910190F081E02D64
:1038D00060E00995EE24E394F12C8091EB05909142
:1038E000EC05F8016491DC01ED91FC910190F0810F
:1038F000E02D0995BFEFEB1AFB0A0F5F1F4FC7CFF3
:10390000DF91CF911F910F91FF90EF900C94391B95
:10391000E091FB05F091FC05908180910106809576
:1039200089238083F701C15008F43AC04491809103
:10393000E9059091EA05892B41F04EBD00000DB4D8
:1039400007FEFDCF8EB53196EECF28E030E090E84F
:10395000A091F705B091F8058091FF05542F5923E8
:10396000D9F05C91852B8C93A091F905B091FA0563
:103970008C9150910006852B8C93A091F905B09104
:10398000FA055C9180910006809585238C9396952D
:1039900021503109E9F6D7CF5C9180958523E3CF9B
:1039A000DF91CF911F910F91FF90EF9008951F939A
:1039B000CF93DF93EC018D8D9E8D009721F1162F13
:1039C00029A131E03093FB032093FA031092F9030D
:1039D0001092F803DC01ED91FC910190F081E02D53
:1039E00060E009958D8D9E8DDC01ED91FC9101903B
:1039F000F081E02D612F09958D8D9E8DDF91CF9106
:103A00001F910C94391BADA5BEA59C918BA98095E7
:103A100089238C938B8D9C8D892B51F06EBD00007A
:103A20000DB407FEFDCF8EB5DF91CF911F910895A4
:103A300028E030E090E8A9A5BAA589A9462F492336
:103A4000A9F04C91842B8C93ABA5BCA58C914AA971
:103A5000842B8C93ABA5BCA54C918AA9809584231B
:103A60008C9396952150310931F7DECF4C9180959A
:103A70008423E9CF1F93CF93DF93EC01162F8D8D15
:103A80009E8D892BB1F12DA93EA94FA958AD60E0BB
:103A900074E284EF90E00E943539205131094109E8
:103AA000510956954795379527952093B80066EAB2
:103AB000111167EACE010E94D71C8D8D9E8D892B36
:103AC00041F129AD3AAD4BAD5CAD60E074E284EFFD
:103AD00090E00E943539205131094109510956952C
:103AE0004795379527952093B800DF91CF911F9187
:103AF00008958B8D9C8D892B21F08EAD9FAD0E94FA
:103B0000F318EFA5F8A990818CA98095892380836B
:103B1000CECFEFA5F8A980819CA9892B8083E5CF22
:103B2000FC01248131E03093FB032093FA031092CF
:103B3000F9031092F8038485682B82EC95E00E94CB
:103B40000A1B82EC95E00C94391BFC01EE0FFF1F61
:103B5000E452FC4F20813181232B39F421E030E005
:103B60003183208361E00C94D30808958F929F9253
:103B7000AF92BF92CF92DF92EF92FF920F931F937B
:103B8000CF93DF93CDB7DEB76B970FB6F894DEBF58
:103B90000FBECDBF8C01F894CE0101967C0188E167
:103BA000D7011D928A95E9F7C8010E94A51D809151
:103BB000A003898F80919E038A8F8091A2038B8FAF
:103BC000FE017996C7015E01BCE1AB0EB11CA701F5
:103BD000A1918A2E912C27E030E06A01C20ED31EFB
:103BE000B401022E02C0759567950A94E2F76170E0
:103BF000D6016C932150310980F7485F5F4FEA1579
:103C0000FB0531F79801225031092630310508F0C3
:103C1000EDC00330110509F052C05B9825E50F9205
:103C20000F900F920F900F920F902150C1F7E8E183
:103C3000EE0EF11C27E030E0FC01E20FF31F4081A3
:103C4000413009F07BC00330110509F04DC05B9A8B
:103C50004AE10F920F900F920F900F920F904150E8
:103C6000C1F70330110509F054C05B9849E10F9288
:103C70000F900F920F900F920F904150C1F721506B
:103C80003109D0F60896E816F906A1F603301105B9
:103C900009F097C05B9A78946B960FB6F894DEBFE4
:103CA0000FBECDBFDF91CF911F910F91FF90EF908D
:103CB000DF90CF90BF90AF909F908F900895043089
:103CC000110511F45C98AACF0530110511F45D9827
:103CD000A5CF0630110511F45E98A0CF073011056D
:103CE00009F09CCF5F989ACF0430110511F45C9ACB
:103CF000AFCF0530110511F45D9AAACF063011053A
:103D000011F45E9AA5CF0730110509F0A1CF5F9A93
:103D10009FCF0430110511F45C98A8CF0530110530
:103D200011F45D98A3CF0630110511F45E989ECF73
:103D30000730110509F09ACF5F9898CF033011052D
:103D4000C1F45B9A4FE00F920F900F920F900F9279
:103D50000F904150C1F703301105F9F45B984EE024
:103D60000F920F900F920F900F920F904150C1F74A
:103D700086CF0430110511F45C9AE4CF05301105AB
:103D800011F45D9ADFCF0630110511F45E9ADACF97
:103D900007301105B9F65F9AD5CF0430110511F43B
:103DA0005C98DDCF0530110511F45D98D8CF063051
:103DB000110511F45E98D3CF0730110581F65F9895
:103DC000CECF0430110511F45C9A65CF0530110592
:103DD00011F45D9A60CF0630110511F45E9A5BCF45
:103DE0000730110509F057CF5F9A55CF9801285039
:103DF00031092630310508F04ECF0830110509F0A1
:103E00003FC0289825E50F920F900F920F900F92C8
:103E10000F902150C1F728E1E20EF11C27E030E0BD
:103E2000FC01E20FF31F4081413009F06BC0083004
:103E3000110509F03BC0289A4AE10F920F900F92AA
:103E40000F900F920F904150C1F70830110509F003
:103E500043C0289849E10F920F900F920F900F9254
:103E60000F904150C1F721503109D0F60896E8165D
:103E7000F906A1F60830110509F08BC0289A0BCF7E
:103E80000930110511F42998BDCF0A30110511F43C
:103E90002A98B8CF0B30110511F42B98B3CF0C3002
:103EA000110511F42C98AECF2D98ACCF0930110527
:103EB00011F4299AC1CF0A30110511F42A9ABCCF06
:103EC0000B30110511F42B9AB7CF0C30110511F4FA
:103ED0002C9AB2CF2D9AB0CF0930110511F4299840
:103EE000B9CF0A30110511F42A98B4CF0B3011055F
:103EF00011F42B98AFCF0C30110511F42C98AACFE8
:103F00002D98A8CF08301105C1F4289A4FE00F92E0
:103F10000F900F920F900F920F904150C1F7083001
:103F2000110509F528984EE00F920F900F920F900F
:103F30000F920F904150C1F796CF0930110511F43F
:103F4000299AE4CF0A30110511F42A9ADFCF0B30F9
:103F5000110511F42B9ADACF0C30110511F42C9ABB
:103F6000D5CF2D9AD3CF0930110511F42998DBCF85
:103F70000A30110511F42A98D6CF0B30110511F42F
:103F80002B98D1CF0C30110511F42C98CCCF2D9853
:103F9000CACF0930110511F4299A7DCE0A301105D6
:103FA00011F42A9A78CE0B30110511F42B9A73CEA6
:103FB0000C30110511F42C9A6ECE2D9A6CCE682F10
:103FC00080E094E00C94BA070F931F93CF93DF9394
:103FD0008B01D82FC92F82E00E94DF1FC801AD2FAF
:103FE000BC2F80936E0290936F02A0937002B093E7
:103FF00071020E94DF1F812F0E94DF1F8D2F0E9400
:10400000DF1F8C2FDF91CF911F910F910C94DF1F39
:104010008FEF0E94DF1F85E50C94DF1FCF92DF92A8
:10402000EF92FF920F931F93CF93DF936C01EB01FD
:104030007B01E40EF51E10E000E0CE15DF0561F017
:104040006991D601ED91FC910190F081E02DC601BE
:104050000995080F191FF1CFC801DF91CF911F916A
:104060000F91FF90EF90DF90CF9008952F923F92A5
:104070004F925F926F927F928F929F92AF92BF9278
:10408000CF92DF92EF92FF920F931F93CF93DF9324
:1040900000D000D000D0CDB7DEB77C016C0124E0A9
:1040A000C20ED11CFC01E158FF4F0190F081E02DC0
:1040B000C60109958C018E3F9F4F08F05BC0370108
:1040C00082E8680E711CF301F081FB83470121E84F
:1040D000820E911CF401F081FD839701215A3F4F1C
:1040E0003A832983F9018081813009F46AC008F498
:1040F0005CC0823009F471C0833009F47AC0F701E2
:10410000EB5AFF4F2D81208331963B8130833797C7
:104110008081918147969C838B830F3F110511F01D
:1041200008F015C1B4960136110530F401341105BB
:1041300058F0F701EF58FF4F808191812B813C812E
:10414000280F391F3C832B838B819C810196FC01B6
:10415000249121115AC0412CE981FA81808181305A
:1041600009F492C108F48BC1823009F48FC1833005
:1041700009F491C181E090E026960FB6F894DEBF75
:104180000FBECDBFDF91CF911F910F91FF90EF90A8
:10419000DF90CF90BF90AF909F908F907F906F9067
:1041A0005F904F903F902F900895F701EF5AFF4F87
:1041B0000190F081E02DC6010995FB81F80FFB838A
:1041C0009ECFF701EF5AFF4F0190F081E02DC6011D
:1041D00009952D81281B2D8392CFF701EF5AFF4FB0
:1041E0000190F081E02DC60109953B81381B3B838E
:1041F00086CFF701EF5AFF4F0190F081E02DC60105
:1042000009959D81980F9D837ACFEB81FC81249144
:104210002017110609F094C0CF010296009709F407
:104220009ACFF701ED5AFF4FFE83ED839183808390
:104230001086719660818D819E810E94E717ED81C5
:10424000FE818683F701EB59FF4F60818D819E814E
:104250000E94E717582EED81FE818783970123582E
:104260003F4F3C832B83F9019081ED81FE81928742
:1042700081E0911180E0ED81FE818387F701EA59A9
:10428000FF4FB0806B2D8D819E810E94E717382EE5
:10429000F701E959FF4F2080622D8D819E810E9498
:1042A000E717182FF701E859FF4F0081602F8D8124
:1042B0009E810E94E717015021E030E0A90101C072
:1042C000440F0A95EAF7482E441AED81FE810681D3
:1042D00010160CF041CFBA94C90101C0880FBA94EE
:1042E000EAF7381AB484150D2A9401C0220F2A94D3
:1042F000EAF7A22EA11A2B2D4A2D632D82810E944E
:104300007417182FED81FE8182832B2D4A2D632D8A
:1043100083810E948117ED81FE818383F1E0BF16C6
:1043200009F493C0BF1608F450C022E0B21609F495
:1043300092C033E0B31609F499C0082F212F49C069
:10434000FC0184912B813C81280F311DFBCEF701AC
:10435000EB58FF4F80819181EB81FC81E80FF91FC1
:10436000FC83EB835F0160E0C5010E9412182B8182
:104370003C81280F391F3C832B8362E0C5010E94DA
:10438000121834E0A30EB11C8017910760F3EB8183
:10439000FC81849190E0982F88273196E4918E2BB0
:1043A000009709F4D8CE0817190721F48B819C8156
:1043B000039634CFEB81FC813296E4912B813C81D2
:1043C0002E0F311D3C832B83E2CF202F210F082F8E
:1043D000050D482F612FC6010E947916882309F424
:1043E000BBCEED81FE81148215825701F2E6AF0E3D
:1043F000B11C23E6E20EF11CF50160818D819E81E6
:104400000E94E717082FF70160818D819E810E942D
:10441000E717182F40E0602FC6010E948E1741E079
:10442000612FC6010E948E1761E08D819E810E94DE
:10443000E7178111EFCFED81FE8185818515E4F2CB
:104440008285EB81FC81808387CEB51821E0210F26
:10445000080F1B0DBECF91E0392F301B21E0210F3B
:10446000951901E0080F890F130FB3CF212F250DE8
:10447000982F901B01E0080F81E0890FAACFF4016B
:104480008081480E408276CEF301FACFF40180811C
:10449000841980836FCEF301FACF089590E080E015
:1044A00008950F931F93CF938C01C62F0E94901DE8
:1044B0006C2F6460C8010E94901D6C2F6B7FC80137
:1044C0000E94901D83EC90E00197F1F7CF911F912E
:1044D0000F9108950F931F93CF93DF938C01D62FE5
:1044E000C42F607F642B0E94512280E1D89FB001CD
:1044F00011246C2BC801DF91CF911F910F910C9467
:10450000512240E0682F85ED96E00C946A22CF930B
:10451000DF93CDB7DEB728970FB6F894DEBF0FBE96
:10452000CDBF98E0E3E1F1E0DE01119601900D923C
:104530009A95E1F79091DD06961710F46FEF690FE9
:1045400070E0660F771F21E030E02C0F3D1F620FF7
:10455000731FFB019081890F806828960FB6F8942D
:10456000DEBF0FBECDBFDF91CF910C94812281E0E1
:104570000E9481228BE39FE10197F1F78091DE0693
:10458000882321F060E080E00C948722089541E0C8
:104590000E946A2281E090E00895E0E2F6E0A481C2
:1045A000B58150962C9186AD38E0839FC0011124CF
:1045B000289FA001299F500D112470E060E084AD78
:1045C00095AD0C94B13C2091D4053091D505C9012D
:1045D000079697FD079623E0959587952A95E1F72D
:1045E0002091D2053091D305829FA001839F500D69
:1045F000929F500D112470E060E08091ED05909144
:10460000EE050C94B13CFB0101900020E9F73197D5
:10461000AF01461B570BDC01ED91FC910280F38149
:10462000E02D099468E272E080E094E00C940323AA
:104630008FEF0E94DF1F85E50E94DF1F0C9412237D
:10464000FC0180819181009711F00C945D3B0895ED
:104650000E94A33C0F931F93CF93DF93EC018881BB
:104660009981009759F02A813B812617370730F04E
:1046700081E0DF91CF911F910F9108958B016F5FC2
:104680007F4F0E94E63B009759F0998388831B83F4
:104690000A832C813D81232B59F7FC011082E8CF3E
:1046A00080E0E7CFEF92FF920F931F93CF93DF93BA
:1046B0006115710541F480E0DF91CF911F910F9159
:1046C000FF90EF90089541155105B1F07B01EC0189
:1046D0000C811D81040F151FB8010E942A23882315
:1046E00051F3288139818C819D81B701820F931FFD
:1046F0000E94B83C1D830C8381E0DECFCF93DF9313
:1047000000D0CDB7DEB769831A8241E050E0BE0128
:104710006F5F7F4F0E9452230F900F90DF91CF91D8
:104720000895EF92FF920F931F93CF93DF93EC01C5
:104730007B018A01BA010E942A23288139818111D3
:1047400014C02115310519F0C9010E945D3B198281
:1047500018821D821C821B821A82CE01DF91CF91AA
:104760001F910F91FF90EF9008951D830C83B70167
:10477000C9010E94B83CF1CFFC0111821082138262
:1047800012821582148250E040E06AE272E00C94DA
:10479000912350E040E06AE272E08AE196E00C94F6
:1047A000912385ED8093BC008091B4029091B50275
:1047B000A091B602B091B7020796A11DB11D23E0EA
:1047C000B695A795979587952A95D1F72091BC0026
:1047D00024FD03C01092FD0208954091B40250914F
:1047E000B5026091B6027091B702452B462B472B5C
:1047F00069F30097A105B10541F025E32A95F1F78A
:1048000000000197A109B109E1CF8091B3020C9496
:10481000931A1F920F920FB60F9211242F933F936A
:104820004F935F936F937F938F939F93AF93BF93B8
:10483000EF93FF938091720390917303A09174039F
:10484000B0917503892B8A2B8B2BD1F190916D033D
:10485000E0916E03F0916F038081892780838091BE
:10486000720390917303A0917403B09175031816AD
:1048700019061A061B069CF480917203909173032B
:10488000A0917403B09175030197A109B1098093B8
:10489000720390937303A0937403B0937503FF9115
:1048A000EF91BF91AF919F918F917F916F915F91A8
:1048B0004F913F912F910F900FBE0F901F90189521
:1048C000809104010E94A708EACF1F920F920FB6B1
:1048D0000F9211242F933F934F935F936F937F9386
:1048E0008F939F93AF93BF93EF93FF9380E094E0F8
:1048F0000E949807FF91EF91BF91AF919F918F9187
:104900007F916F915F914F913F912F910F900FBECB
:104910000F901F9018951F920F920FB60F921124AF
:104920002F938F939F93EF93FF93E0911004F09157
:1049300011048081E0911604F091170482FD1BC0E0
:104940009081809119048F5F8F7320911A048217D0
:1049500041F0E0911904F0E0E050FC4F958F809316
:104960001904FF91EF919F918F912F910F900FBE9E
:104970000F901F9018958081F4CF1F920F920FB661
:104980000F9211242F933F938F939F93AF93BF93D5
:104990008091650390916603A0916703B0916803CD
:1049A0003091640323E0230F2D3758F50196A11DA4
:1049B000B11D209364038093650390936603A093D5
:1049C0006703B09368038091690390916A03A09193
:1049D0006B03B0916C030196A11DB11D8093690317
:1049E00090936A03A0936B03B0936C03BF91AF9154
:1049F0009F918F913F912F910F900FBE0F901F901D
:104A0000189526E8230F0296A11DB11DD2CF1F9243
:104A10000F920FB60F9211242F933F934F935F93F2
:104A20006F937F938F939F93AF93BF93EF93FF9376
:104A3000E091FE03F091FF03309749F0A685B7851A
:104A40008585968D91FF14C09C918923A1F4FF91D7
:104A5000EF91BF91AF919F918F917F916F915F91F6
:104A60004F913F912F910F900FBE0F901F9018956F
:104A70009C91892361F7A389B4899C91858980954C
:104A800089238C93868997890197F1F7608D718DC1
:104A9000A685B785558538E020E0CB010197F1F771
:104AA000822F90E095958795282F4C91452309F00A
:104AB0002068315091F7868D81FD20958091FD030E
:104AC00090E001968F7399273091FC03381799F085
:104AD000A091FD03B0E0AD5DBC4F2C938093FD032E
:104AE000828D938D0197F1F7A389B4898C91958973
:104AF000892B8C93ACCF868D8160868FF1CF1F92EE
:104B00000F920FB60F9211242F933F934F935F9301
:104B10006F937F938F939F93AF93BF93EF93FF9385
:104B20008091B900887F803609F44AC0F0F5883258
:104B300009F4A7C018F5803109F49BC0B8F48823A4
:104B400009F4F9C0883009F494C0FF91EF91BF9146
:104B5000AF919F918F917F916F915F914F913F9115
:104B60002F910F900FBE0F901F901895883109F468
:104B700088C0803251F78093FC0214C0803409F45D
:104B80009DC040F48033B9F38833F9F68093FC027A
:104B900085ECB0C0803509F485C0883509F496C02D
:104BA000883499F60E94D123D0CF883909F48CC07B
:104BB00038F5883729F050F4883611F0803729F617
:104BC00083E08093FD021092FB0257C0883809F4FD
:104BD0007BC0803919F0803809F0B7CF8091FB0293
:104BE000803208F071C0E091FB0281E08E0F80936B
:104BF000FB028091BB00F0E0E552FD4F80833DC099
:104C0000803B39F0E0F4803A09F479C0883A09F041
:104C10009CCF84E08093FD021092DA021092D902B8
:104C2000E0919303F091940309958091D902811149
:104C30000FC081E08093D9021092B90209C0803C74
:104C400009F4A6CF883C09F4A3CF883B09F07DCFB7
:104C5000E091DA0281E08E0F8093DA02F0E0E7540F
:104C6000FD4F80818093BB009091DA028091D90240
:104C700029C0809122038093BB0085EC8093BC0007
:104C800064CF9091210380912003981758F5E0910B
:104C9000210381E08E0F80932103F0E0E050FD4F6F
:104CA0008081E9CFE091210381E08E0F8093210381
:104CB0008091BB00F0E0E050FD4F80839091210394
:104CC000809120039817C8F285E8D8CFE09121039E
:104CD00081E08E0F809321038091BB00F0E0E050D3
:104CE000FD4F80838091FF0281115CCF81E0809332
:104CF000FE0284EA8093BC001092FD0226CF85EC70
:104D00008093BC001092FD028091FB02803230F44F
:104D1000E091FB02F0E0E552FD4F10826091FB0252
:104D200070E0E0919103F09192038BED92E0099590
:104D30001092FB020ACF1092FC0234CF1F920F9206
:104D40000FB60F9211242F933F934F935F936F935E
:104D50007F938F939F93AF93BF93CF93DF93EF9303
:104D6000FF9380917202C091C105D0E087FF24C0FB
:104D70001092850010928400809172028F5F809360
:104D8000720280917202082E000C990B8C179D07FD
:104D900024F4809172028C30C4F18091840090914F
:104DA0008500049680349C4908F47AC08091840080
:104DB00090918500049676C080917202082E000CB6
:104DC000990B8C179D07C4F6E09172028E2FEE0F9F
:104DD000990BFC01EE0FFF1FE80FF91FE356FA4F86
:104DE000808186FFC9CFE09172028E2FEE0F990B62
:104DF000FC01EE0FFF1FE80FF91FE356FA4F808109
:104E000060E08F730E947908B7CF209184003091C1
:104E10008500E09172028E2FEE0F990BFC01EE0FD0
:104E2000FF1FE80FF91FE356FA4F81819281820F2D
:104E3000931F9093890080938800E09172028E2FD7
:104E4000EE0F990BFC01EE0FFF1FE80FF91FE35661
:104E5000FA4F808186FF11C0E09172028E2FEE0F13
:104E6000990BFC01EE0FFF1FE80FF91FE356FA4FF5
:104E7000808161E08F730E947908FF91EF91DF914B
:104E8000CF91BF91AF919F918F917F916F915F91E2
:104E90004F913F912F910F900FBE0F901F9018953B
:104EA00080E49CE990938900809388008FEF809341
:104EB0007202E3CFCF92DF92EF92FF920F931F9394
:104EC000E82FF92F05C0015011092109310961F1BD
:104ED000908196239417B9F305C001501109210957
:104EE000310911F1908196239413F7CFC12CD12C65
:104EF000E12CF12C0AC08FEFC81AD80AE80AF80A88
:104F00000C151D052E053F0579F080818623841739
:104F100091F36C2D7D2D8E2D9F2D1F910F91FF9064
:104F2000EF90DF90CF90089560E070E080E090E037
:104F30001F910F91FF90EF90DF90CF900895CF9346
:104F4000DF93109203041092020488EE93E0A0E035
:104F5000B0E08093040490930504A0930604B093FA
:104F600007042CEA31E0309301042093000425EC7F
:104F700030E030930D0420930C0424EC30E03093A7
:104F80000F0420930E0420EC30E0309311042093A2
:104F9000100421EC30E0309313042093120422EC2F
:104FA00030E0309315042093140426EC30E0309365
:104FB0001704209316041092190410921A041092E8
:104FC0001B0410921C041092C5051092C405809316
:104FD000C6059093C705A093C805B093C9058EEB8D
:104FE00091E09093C3058093C20585E08093FD0610
:104FF00084E08093FE0660E085E00E94D30860E0D4
:105000008091FE060E94D30860E08091FD060E9418
:10501000790860E08091FE060E947908E5EEF6E0EE
:105020002FEF48EB5BE08091C1058C3008F0EBC1BD
:1050300091E0980F9093C105808390E0DC01AA0F66
:10504000BB1FA80FB91FA356BA4F12965C934E937D
:105050001197339686E0ED3FF80729F78091C10557
:105060008C3008F0D2C191E0980F9093C1058093E5
:10507000E20690E0FC01EE0FFF1FE80FF91FE35678
:10508000FA4F88EB9BE0928381831092D8061092AE
:10509000D7068AE192E09093D6068093D5061092C7
:1050A000DE0680E28093D90680E18093DF0682E00D
:1050B0008093E0061092E1068CE08093C7068BE0B7
:1050C0008093C806EDE7FAE0E491E093C906E9E6CB
:1050D000FAE0E491E093CA0680E89EE3A0E0B0E045
:1050E0008093CF069093D006A093D106B093D206BA
:1050F0001092A6061092A50688EE93E0A0E0B0E01C
:105100008093A7069093A806A093A906B093AA0639
:1051100088E092E09093A4068093A3061092BA06CA
:105120001092B9061092BC061092BB061092BE06F1
:105130001092BD061092C0061092BF066091C10683
:105140006E7F6D7F6093C1066695617081E0682710
:1051500083E00E94790861E083E00E94D308E4E7DD
:10516000FAE0E491E093B306E0E6FAE0E491F0E0DF
:10517000EE0FFF1FED5AF54F859194919093B50670
:105180008093B40660E082E00E94D3088091C1065B
:1051900081FD04C061E082E00E94790882E0809392
:1051A000AF06E3E7FAE0E491E093B006EFE5FAE05A
:1051B000E491F0E0EE0FFF1FE75BF54F85919491CE
:1051C0009093B2068093B1061092230610922206A5
:1051D0008FE695E09093A00680939F061092A1061B
:1051E0001092A20610923C068CEF91E0909321065B
:1051F00080932006109225061092240610923906FC
:105200001092300610923106109232061092330638
:105210008FEF80933A0680933E06E2E4F6E088E55D
:1052200096E0CFEFC1938E179F07E1F789E594E1F0
:10523000909329068093280680EC95E190932B06A5
:1052400080932A068EE198E190932D0680932C0698
:1052500087E898E190932F0680932E0630E020E0B7
:1052600040E069E084E296E00E94591410927006D2
:1052700010926F0689E795E090935906809358063F
:105280008DE994E090935D0680935C0682E08093C4
:105290005E0610925F0610927C0610929C06D1E08A
:1052A000D0939D06D0939E0682E292E090935B0697
:1052B00080935A0684E296E00E94361610926B069E
:1052C00010926D06C0936C06C0936E06E0915A066C
:1052D000F0915B060280F381E02D84E296E009956F
:1052E0008CED95E0909372068093710610927F0684
:1052F00082E180934E0683E180934F06C0934D0672
:105300008AE196E00E94BC2384E196E00E94BC23DF
:105310008EE096E00E94BC231092D1051092D00539
:1053200020E830E03093D3052093D20580E490E06C
:105330009093D5058093D4053093D7052093D60557
:105340009093D9058093D8051092E4051092DB055F
:105350001092DA051092DD051092DC05D093E3057A
:10536000D093E2058FEF9FEF9093E1058093E005E6
:105370009093DF058093DE05D093E5051092E60556
:105380001092E8051092E70580ED91E09093CF052B
:105390008093CE051092EA051092E90582EC95E023
:1053A0009093EC058093EB051092EE051092ED05BD
:1053B000C093F205C093F305C093F405C093F505BF
:1053C00084E08093F60580E89AE1A6E0B0E080935F
:1053D000030690930406A0930506B093060680EAA0
:1053E00096E8A1E0B0E08093070690930806A093AA
:1053F0000906B0930A0680E580930C0610920D060C
:10540000DF91CF910895208324CE8FEF8093E20621
:105410003CCECF93DF93CDB7DEB7E7970FB6F894C6
:10542000DEBF0FBECDBF789484B5826084BD84B5E5
:10543000816084BD85B5826085BD85B5816085BD8F
:1054400080916E00816080936E0010928100809147
:1054500081008260809381008091810081608093CF
:105460008100809180008160809380008091B100F4
:1054700084608093B1008091B00081608093B0001F
:1054800080917A00846080937A0080917A008260B3
:1054900080937A0080917A00816080937A00809175
:1054A0007A00806880937A001092C100E091100425
:1054B000F091110482E08083E0910C04F0910D04DE
:1054C0001082E0910E04F0910F0480E1808310922D
:1054D0001804E0911404F091150486E08083E091B3
:1054E0001204F0911304808180618083E0911204A2
:1054F000F0911304808188608083E0911204F09120
:105500001304808180688083E0911204F091130479
:1055100080818F7D80830E94B91914E061E0812F22
:105520000E94D30860E0812F0E9479081F5F1E301F
:10553000A9F710929603109295031092F903109216
:10554000F8030E94751A88E197E090939403809382
:10555000930389E197E090939203809391031092D3
:10556000DA068091E006823018F098E09093DA062F
:105570008093DD0662E370E080E090E00E944B0AD9
:105580006091E10685ED96E00E94901D68EE73E063
:1055900080E090E00E944B0A60E385ED96E00E9477
:1055A00051220BE416E4C8010197F1F760E385EDA1
:1055B00096E00E945122C8010197F1F760E385ED62
:1055C00096E00E94512283E592E00197F1F760E2B4
:1055D00085ED96E00E9451228091DA0680620E9459
:1055E000812284E08093DB068CE00E9481220E946D
:1055F000B72282E08093DC0686E00E94812282E06E
:105600000E9481228BE39FE10197F1F788E080936C
:10561000E10660E085ED96E00E94901D0E94B722B1
:1056200060E080E00E9487226BE272E085ED96E008
:105630000E94032361E080E00E9487226CE372E015
:1056400085ED96E00E940323E0912806F09129065B
:1056500030E020E040E06AE084E296E00995809145
:105660009E0681110E94CD2280E00E94DE050E94EC
:10567000F50510915F0680915E06180FE0912406F3
:10568000F09125068189181708F4D3C0E091280607
:10569000F091290630E020E040E060E184E296E00D
:1056A000099580E00E94DE05E0912806F091290628
:1056B00030E020E040E06BE084E296E009958CE386
:1056C00080933A068FEF80930501809306018093C3
:1056D00007018093080110E0812F88608093FF0606
:1056E00085E091E00E949F0964E670E080E090E030
:1056F0000E944B0A1F5F173079F722E0E22EF12C4F
:1057000034E0A32E31E0B32E04E811E080E0882ECF
:1057100081E0982E6801D6018D916D01F40181938D
:105720004F0180E091E00E949F096AE070E080E014
:1057300090E00E944B0AA814B90469F76AE070E08F
:1057400080E090E00E944B0A0F5F1F4FF1E00139AB
:105750001F07E1F66AE070E080E090E00E944B0AEB
:10576000EA94EF2809F06CC08BE08093FF0680E894
:1057700091E00E949F0968EE73E080E090E00E9453
:105780004B0A68EC70E080E090E00E944B0A1E013A
:1057900032E2230E311CAE014E5E5F4F5FA74EA773
:1057A00080E094E00E947807892B11F40C9419355D
:1057B00080E094E00E947807181619068CF780E0C4
:1057C00094E00E9456079091CE038535E9F591113A
:1057D0003BC08091CD038F3F29F481E08093CC03BF
:1057E0008093CE038091CC038F5F843308F043C055
:1057F0008093CC03D090CE03DD2091F28091CB0337
:105800008111CECF8091CC03843050F21092CE0320
:10581000E0919C0300919D03E02EF12C20919B03CD
:10582000223009F4CAC064F5213091F11092CC0302
:10583000B7CF80919E0681110E94CD22812F15CF76
:10584000EE24E394F12C60CF8093CD03992351F2A1
:10585000E091CC03E23039F48093CB03F0E0E956D9
:10586000FC4F8083BFCFE330C8F39091CB039150BE
:105870009093CB03F3CF1092CC031092CE03BACF08
:10588000233009F453C4243089F60E941823CECF64
:10589000E73009F040C010919E03812F90E03091D5
:1058A000D803311129C02093D803F0920C01E09263
:1058B0000B0190930A0180930901F701EE0FFF1F7E
:1058C000E452FC4F21E030E031832083880F991FA0
:1058D000FC01E452FC4F3183208361E0802F0E9461
:1058E000D30860E0812F0E94D30862E370E080E07B
:1058F00090E00E944B0A9ACF20910B0130910C014D
:10590000E216F30691F62091090130910A01281759
:10591000390759F68BCFF0E0E930F10571F40E94B8
:10592000B91960E082E00E94D3088091D703811109
:105930007DCF81E08093D70379CFEA30F10529F458
:105940000E94B91961E083E0EECF023069F483EA86
:1059500096E00E94A3191092D7030E94C9231092C7
:10596000E1031092E00362CF53E0E516F10469F41D
:1059700083EA96E00E94A3191092D7030E94C923DC
:105980001092E3031092E20351CF3C9771F480919F
:10599000DB03811103C081E08093DB0381E090E0B1
:1059A0009093F5038093F403A0CFF701EE0FFF1F50
:1059B000E452FC4F1182108239CF80910B019091FB
:1059C0000C01E816F90639F08091090190910A015D
:1059D000E816F90651F41092D8031092CF031092F2
:1059E000D0031092D1031092D203E150ED3008F0B1
:1059F0004CCF0E2E000CFF0BE050F34D0C94A03A50
:105A00000D2D452C162D4C2F202D452C452C5F306F
:105A1000452C452C452C62307E30C7010E94A51DC7
:105A200060919E03802F0E9479082FCFC7010E94AA
:105A3000A51D60919E0370E0802F0E94C90925CFAB
:105A4000C7010E94A51D80919E0380938E038091C3
:105A50009F0380938F0380918E0390918F0399AB66
:105A600088AB8091A00380938E038091A1038093E3
:105A70008F03A0918E03B0918F03BFABAEAB1A160C
:105A80001B060CF005C28091040108138BC0ECE8E2
:105A9000F5E0149117FDF9CE61E0802F0E94D30844
:105AA0001123B9F0E8A9F9A92F01712C612C60E04C
:105AB00072E18AE790E0A3019F010E94D438690156
:105AC0007A01F1E0CF1AD108E108F108123009F0AB
:105AD0009CC128A939A92901712C612C60E072E1CF
